{
  "_format": "hh-sol-artifact-1",
  "contractName": "ArticlesContract101",
  "sourceName": "contracts/Articles.sol",
  "abi": [
    {
      "inputs": [],
      "stateMutability": "nonpayable",
      "type": "constructor"
    },
    {
      "anonymous": false,
      "inputs": [
        {
          "indexed": true,
          "internalType": "address",
          "name": "owner",
          "type": "address"
        },
        {
          "indexed": true,
          "internalType": "address",
          "name": "approved",
          "type": "address"
        },
        {
          "indexed": true,
          "internalType": "uint256",
          "name": "tokenId",
          "type": "uint256"
        }
      ],
      "name": "Approval",
      "type": "event"
    },
    {
      "anonymous": false,
      "inputs": [
        {
          "indexed": true,
          "internalType": "address",
          "name": "owner",
          "type": "address"
        },
        {
          "indexed": true,
          "internalType": "address",
          "name": "operator",
          "type": "address"
        },
        {
          "indexed": false,
          "internalType": "bool",
          "name": "approved",
          "type": "bool"
        }
      ],
      "name": "ApprovalForAll",
      "type": "event"
    },
    {
      "anonymous": false,
      "inputs": [
        {
          "indexed": true,
          "internalType": "uint256",
          "name": "articleId",
          "type": "uint256"
        },
        {
          "indexed": false,
          "internalType": "string",
          "name": "content",
          "type": "string"
        },
        {
          "indexed": true,
          "internalType": "address",
          "name": "owner",
          "type": "address"
        },
        {
          "indexed": false,
          "internalType": "uint256",
          "name": "amount",
          "type": "uint256"
        }
      ],
      "name": "ArticleCreated",
      "type": "event"
    },
    {
      "anonymous": false,
      "inputs": [
        {
          "indexed": true,
          "internalType": "uint256",
          "name": "articleId",
          "type": "uint256"
        },
        {
          "indexed": false,
          "internalType": "bool",
          "name": "newexchangeable",
          "type": "bool"
        }
      ],
      "name": "ArticleExchangeable",
      "type": "event"
    },
    {
      "anonymous": false,
      "inputs": [
        {
          "indexed": true,
          "internalType": "uint256",
          "name": "articleId",
          "type": "uint256"
        },
        {
          "indexed": true,
          "internalType": "address",
          "name": "oldOwner",
          "type": "address"
        },
        {
          "indexed": true,
          "internalType": "address",
          "name": "newOwner",
          "type": "address"
        }
      ],
      "name": "ArticleSold",
      "type": "event"
    },
    {
      "anonymous": false,
      "inputs": [
        {
          "indexed": true,
          "internalType": "address",
          "name": "from",
          "type": "address"
        },
        {
          "indexed": true,
          "internalType": "address",
          "name": "to",
          "type": "address"
        },
        {
          "indexed": true,
          "internalType": "uint256",
          "name": "tokenId",
          "type": "uint256"
        }
      ],
      "name": "Transfer",
      "type": "event"
    },
    {
      "inputs": [
        {
          "internalType": "address",
          "name": "to",
          "type": "address"
        },
        {
          "internalType": "uint256",
          "name": "tokenId",
          "type": "uint256"
        }
      ],
      "name": "approve",
      "outputs": [],
      "stateMutability": "nonpayable",
      "type": "function"
    },
    {
      "inputs": [],
      "name": "articleCount",
      "outputs": [
        {
          "internalType": "uint256",
          "name": "",
          "type": "uint256"
        }
      ],
      "stateMutability": "view",
      "type": "function"
    },
    {
      "inputs": [
        {
          "internalType": "uint256",
          "name": "",
          "type": "uint256"
        }
      ],
      "name": "articles",
      "outputs": [
        {
          "internalType": "string",
          "name": "content",
          "type": "string"
        },
        {
          "internalType": "address",
          "name": "owner",
          "type": "address"
        },
        {
          "internalType": "string",
          "name": "tags",
          "type": "string"
        },
        {
          "internalType": "uint256",
          "name": "created",
          "type": "uint256"
        },
        {
          "internalType": "uint256",
          "name": "amount",
          "type": "uint256"
        },
        {
          "internalType": "bool",
          "name": "exchangeable",
          "type": "bool"
        }
      ],
      "stateMutability": "view",
      "type": "function"
    },
    {
      "inputs": [
        {
          "internalType": "address",
          "name": "owner",
          "type": "address"
        }
      ],
      "name": "balanceOf",
      "outputs": [
        {
          "internalType": "uint256",
          "name": "",
          "type": "uint256"
        }
      ],
      "stateMutability": "view",
      "type": "function"
    },
    {
      "inputs": [
        {
          "internalType": "string",
          "name": "_content",
          "type": "string"
        },
        {
          "internalType": "string",
          "name": "_tags",
          "type": "string"
        },
        {
          "internalType": "uint256",
          "name": "_amount",
          "type": "uint256"
        }
      ],
      "name": "createArticle",
      "outputs": [],
      "stateMutability": "nonpayable",
      "type": "function"
    },
    {
      "inputs": [
        {
          "internalType": "uint256",
          "name": "_articleId",
          "type": "uint256"
        },
        {
          "internalType": "address",
          "name": "_newOwner",
          "type": "address"
        },
        {
          "internalType": "uint256",
          "name": "_newAmount",
          "type": "uint256"
        }
      ],
      "name": "exchangeArticle",
      "outputs": [],
      "stateMutability": "nonpayable",
      "type": "function"
    },
    {
      "inputs": [
        {
          "internalType": "uint256",
          "name": "_articleId",
          "type": "uint256"
        },
        {
          "internalType": "bool",
          "name": "_exchangeable",
          "type": "bool"
        }
      ],
      "name": "exchangeableArticle",
      "outputs": [],
      "stateMutability": "nonpayable",
      "type": "function"
    },
    {
      "inputs": [],
      "name": "getAllArticles",
      "outputs": [
        {
          "components": [
            {
              "internalType": "string",
              "name": "content",
              "type": "string"
            },
            {
              "internalType": "address",
              "name": "owner",
              "type": "address"
            },
            {
              "internalType": "string",
              "name": "tags",
              "type": "string"
            },
            {
              "internalType": "uint256",
              "name": "created",
              "type": "uint256"
            },
            {
              "internalType": "uint256",
              "name": "amount",
              "type": "uint256"
            },
            {
              "internalType": "bool",
              "name": "exchangeable",
              "type": "bool"
            }
          ],
          "internalType": "struct ArticlesContract101.Article[]",
          "name": "",
          "type": "tuple[]"
        }
      ],
      "stateMutability": "view",
      "type": "function"
    },
    {
      "inputs": [
        {
          "internalType": "uint256",
          "name": "tokenId",
          "type": "uint256"
        }
      ],
      "name": "getApproved",
      "outputs": [
        {
          "internalType": "address",
          "name": "",
          "type": "address"
        }
      ],
      "stateMutability": "view",
      "type": "function"
    },
    {
      "inputs": [],
      "name": "getArticleCount",
      "outputs": [
        {
          "internalType": "uint256",
          "name": "",
          "type": "uint256"
        }
      ],
      "stateMutability": "view",
      "type": "function"
    },
    {
      "inputs": [
        {
          "internalType": "address",
          "name": "owner",
          "type": "address"
        },
        {
          "internalType": "address",
          "name": "operator",
          "type": "address"
        }
      ],
      "name": "isApprovedForAll",
      "outputs": [
        {
          "internalType": "bool",
          "name": "",
          "type": "bool"
        }
      ],
      "stateMutability": "view",
      "type": "function"
    },
    {
      "inputs": [],
      "name": "name",
      "outputs": [
        {
          "internalType": "string",
          "name": "",
          "type": "string"
        }
      ],
      "stateMutability": "view",
      "type": "function"
    },
    {
      "inputs": [
        {
          "internalType": "uint256",
          "name": "tokenId",
          "type": "uint256"
        }
      ],
      "name": "ownerOf",
      "outputs": [
        {
          "internalType": "address",
          "name": "",
          "type": "address"
        }
      ],
      "stateMutability": "view",
      "type": "function"
    },
    {
      "inputs": [
        {
          "internalType": "address",
          "name": "from",
          "type": "address"
        },
        {
          "internalType": "address",
          "name": "to",
          "type": "address"
        },
        {
          "internalType": "uint256",
          "name": "tokenId",
          "type": "uint256"
        }
      ],
      "name": "safeTransferFrom",
      "outputs": [],
      "stateMutability": "nonpayable",
      "type": "function"
    },
    {
      "inputs": [
        {
          "internalType": "address",
          "name": "from",
          "type": "address"
        },
        {
          "internalType": "address",
          "name": "to",
          "type": "address"
        },
        {
          "internalType": "uint256",
          "name": "tokenId",
          "type": "uint256"
        },
        {
          "internalType": "bytes",
          "name": "data",
          "type": "bytes"
        }
      ],
      "name": "safeTransferFrom",
      "outputs": [],
      "stateMutability": "nonpayable",
      "type": "function"
    },
    {
      "inputs": [
        {
          "internalType": "address",
          "name": "operator",
          "type": "address"
        },
        {
          "internalType": "bool",
          "name": "approved",
          "type": "bool"
        }
      ],
      "name": "setApprovalForAll",
      "outputs": [],
      "stateMutability": "nonpayable",
      "type": "function"
    },
    {
      "inputs": [
        {
          "internalType": "bytes4",
          "name": "interfaceId",
          "type": "bytes4"
        }
      ],
      "name": "supportsInterface",
      "outputs": [
        {
          "internalType": "bool",
          "name": "",
          "type": "bool"
        }
      ],
      "stateMutability": "view",
      "type": "function"
    },
    {
      "inputs": [],
      "name": "symbol",
      "outputs": [
        {
          "internalType": "string",
          "name": "",
          "type": "string"
        }
      ],
      "stateMutability": "view",
      "type": "function"
    },
    {
      "inputs": [
        {
          "internalType": "uint256",
          "name": "tokenId",
          "type": "uint256"
        }
      ],
      "name": "tokenURI",
      "outputs": [
        {
          "internalType": "string",
          "name": "",
          "type": "string"
        }
      ],
      "stateMutability": "view",
      "type": "function"
    },
    {
      "inputs": [
        {
          "internalType": "address",
          "name": "from",
          "type": "address"
        },
        {
          "internalType": "address",
          "name": "to",
          "type": "address"
        },
        {
          "internalType": "uint256",
          "name": "tokenId",
          "type": "uint256"
        }
      ],
      "name": "transferFrom",
      "outputs": [],
      "stateMutability": "nonpayable",
      "type": "function"
    }
  ],
  "bytecode": "0x60806040523480156200001157600080fd5b506040518060400160405280600881526020017f41727469636c65730000000000000000000000000000000000000000000000008152506040518060400160405280600381526020017f415254000000000000000000000000000000000000000000000000000000000081525081600090816200008f919062000324565b508060019081620000a1919062000324565b5050506200040b565b600081519050919050565b7f4e487b7100000000000000000000000000000000000000000000000000000000600052604160045260246000fd5b7f4e487b7100000000000000000000000000000000000000000000000000000000600052602260045260246000fd5b600060028204905060018216806200012c57607f821691505b602082108103620001425762000141620000e4565b5b50919050565b60008190508160005260206000209050919050565b60006020601f8301049050919050565b600082821b905092915050565b600060088302620001ac7fffffffffffffffffffffffffffffffffffffffffffffffffffffffffffffffff826200016d565b620001b886836200016d565b95508019841693508086168417925050509392505050565b6000819050919050565b6000819050919050565b600062000205620001ff620001f984620001d0565b620001da565b620001d0565b9050919050565b6000819050919050565b6200022183620001e4565b6200023962000230826200020c565b8484546200017a565b825550505050565b600090565b6200025062000241565b6200025d81848462000216565b505050565b5b8181101562000285576200027960008262000246565b60018101905062000263565b5050565b601f821115620002d4576200029e8162000148565b620002a9846200015d565b81016020851015620002b9578190505b620002d1620002c8856200015d565b83018262000262565b50505b505050565b600082821c905092915050565b6000620002f960001984600802620002d9565b1980831691505092915050565b6000620003148383620002e6565b9150826002028217905092915050565b6200032f82620000aa565b67ffffffffffffffff8111156200034b576200034a620000b5565b5b62000357825462000113565b6200036482828562000289565b600060209050601f8311600181146200039c576000841562000387578287015190505b62000393858262000306565b86555062000403565b601f198416620003ac8662000148565b60005b82811015620003d657848901518255600182019150602085019450602081019050620003af565b86831015620003f65784890151620003f2601f891682620002e6565b8355505b6001600288020188555050505b505050505050565b613917806200041b6000396000f3fe608060405234801561001057600080fd5b506004361061012c5760003560e01c806395d89b41116100ad578063c87b56dd11610071578063c87b56dd1461032d578063d45338591461035d578063e899d5ff14610379578063e985e9c514610397578063edcfafe6146103c75761012c565b806395d89b411461029d578063a22cb465146102bb578063b44d310b146102d7578063b88d4fde146102f5578063bd5d9cef146103115761012c565b8063414e28b0116100f4578063414e28b0146101e757806342842e0e146102055780636352211e1461022157806370a08231146102515780638ea751bb146102815761012c565b806301ffc9a71461013157806306fdde0314610161578063081812fc1461017f578063095ea7b3146101af57806323b872dd146101cb575b600080fd5b61014b6004803603810190610146919061226f565b6103fc565b60405161015891906122b7565b60405180910390f35b6101696104de565b6040516101769190612362565b60405180910390f35b610199600480360381019061019491906123ba565b610570565b6040516101a69190612428565b60405180910390f35b6101c960048036038101906101c4919061246f565b6105b6565b005b6101e560048036038101906101e091906124af565b6106cd565b005b6101ef61072d565b6040516101fc9190612511565b60405180910390f35b61021f600480360381019061021a91906124af565b610733565b005b61023b600480360381019061023691906123ba565b610753565b6040516102489190612428565b60405180910390f35b61026b6004803603810190610266919061252c565b6107d9565b6040516102789190612511565b60405180910390f35b61029b60048036038101906102969190612559565b610890565b005b6102a5610b49565b6040516102b29190612362565b60405180910390f35b6102d560048036038101906102d091906125d8565b610bdb565b005b6102df610bf1565b6040516102ec91906127e1565b60405180910390f35b61030f600480360381019061030a9190612938565b610e69565b005b61032b60048036038101906103269190612a5c565b610ecb565b005b610347600480360381019061034291906123ba565b611058565b6040516103549190612362565b60405180910390f35b61037760048036038101906103729190612ae7565b6110c0565b005b6103816111d0565b60405161038e9190612511565b60405180910390f35b6103b160048036038101906103ac9190612b27565b6111da565b6040516103be91906122b7565b60405180910390f35b6103e160048036038101906103dc91906123ba565b61126e565b6040516103f396959493929190612b67565b60405180910390f35b60007f80ac58cd000000000000000000000000000000000000000000000000000000007bffffffffffffffffffffffffffffffffffffffffffffffffffffffff1916827bffffffffffffffffffffffffffffffffffffffffffffffffffffffff191614806104c757507f5b5e139f000000000000000000000000000000000000000000000000000000007bffffffffffffffffffffffffffffffffffffffffffffffffffffffff1916827bffffffffffffffffffffffffffffffffffffffffffffffffffffffff1916145b806104d757506104d6826113e7565b5b9050919050565b6060600080546104ed90612c05565b80601f016020809104026020016040519081016040528092919081815260200182805461051990612c05565b80156105665780601f1061053b57610100808354040283529160200191610566565b820191906000526020600020905b81548152906001019060200180831161054957829003601f168201915b5050505050905090565b600061057b82611451565b6004600083815260200190815260200160002060009054906101000a900473ffffffffffffffffffffffffffffffffffffffff169050919050565b60006105c182610753565b90508073ffffffffffffffffffffffffffffffffffffffff168373ffffffffffffffffffffffffffffffffffffffff1603610631576040517f08c379a000000000000000000000000000000000000000000000000000000000815260040161062890612ca8565b60405180910390fd5b8073ffffffffffffffffffffffffffffffffffffffff1661065061149c565b73ffffffffffffffffffffffffffffffffffffffff16148061067f575061067e8161067961149c565b6111da565b5b6106be576040517f08c379a00000000000000000000000000000000000000000000000000000000081526004016106b590612d3a565b60405180910390fd5b6106c883836114a4565b505050565b6106de6106d861149c565b8261155d565b61071d576040517f08c379a000000000000000000000000000000000000000000000000000000000815260040161071490612dcc565b60405180910390fd5b6107288383836115f2565b505050565b60075481565b61074e83838360405180602001604052806000815250610e69565b505050565b60008061075f836118eb565b9050600073ffffffffffffffffffffffffffffffffffffffff168173ffffffffffffffffffffffffffffffffffffffff16036107d0576040517f08c379a00000000000000000000000000000000000000000000000000000000081526004016107c790612e38565b60405180910390fd5b80915050919050565b60008073ffffffffffffffffffffffffffffffffffffffff168273ffffffffffffffffffffffffffffffffffffffff1603610849576040517f08c379a000000000000000000000000000000000000000000000000000000000815260040161084090612eca565b60405180910390fd5b600360008373ffffffffffffffffffffffffffffffffffffffff1673ffffffffffffffffffffffffffffffffffffffff168152602001908152602001600020549050919050565b60006006600085815260200190815260200160002060010160009054906101000a900473ffffffffffffffffffffffffffffffffffffffff1690506000600660008681526020019081526020016000206004015490506064606e826108f59190612f19565b6108ff9190612f8a565b831015610941576040517f08c379a00000000000000000000000000000000000000000000000000000000081526004016109389061302d565b60405180910390fd5b600115156006600087815260200190815260200160002060050160009054906101000a900460ff161515146109ab576040517f08c379a00000000000000000000000000000000000000000000000000000000081526004016109a290613099565b60405180910390fd5b836006600087815260200190815260200160002060010160006101000a81548173ffffffffffffffffffffffffffffffffffffffff021916908373ffffffffffffffffffffffffffffffffffffffff160217905550826006600087815260200190815260200160002060040181905550610a268285876115f2565b6000600a8285610a3691906130b9565b610a409190612f8a565b90503073ffffffffffffffffffffffffffffffffffffffff166108fc829081150290604051600060405180830381858888f19350505050158015610a88573d6000803e3d6000fd5b508273ffffffffffffffffffffffffffffffffffffffff166108fc828487610ab091906130b9565b610aba91906130b9565b9081150290604051600060405180830381858888f19350505050158015610ae5573d6000803e3d6000fd5b508473ffffffffffffffffffffffffffffffffffffffff168373ffffffffffffffffffffffffffffffffffffffff16877ffbd2d55912fe1cb56cd9baec6485fff2215ba3da96107bb4eea84a0f0e9a4f5460405160405180910390a4505050505050565b606060018054610b5890612c05565b80601f0160208091040260200160405190810160405280929190818152602001828054610b8490612c05565b8015610bd15780601f10610ba657610100808354040283529160200191610bd1565b820191906000526020600020905b815481529060010190602001808311610bb457829003601f168201915b5050505050905090565b610bed610be661149c565b8383611928565b5050565b6060600060075467ffffffffffffffff811115610c1157610c1061280d565b5b604051908082528060200260200182016040528015610c4a57816020015b610c376121b5565b815260200190600190039081610c2f5790505b5090506000600190505b6007548111610e6157600660008281526020019081526020016000206040518060c0016040529081600082018054610c8b90612c05565b80601f0160208091040260200160405190810160405280929190818152602001828054610cb790612c05565b8015610d045780601f10610cd957610100808354040283529160200191610d04565b820191906000526020600020905b815481529060010190602001808311610ce757829003601f168201915b505050505081526020016001820160009054906101000a900473ffffffffffffffffffffffffffffffffffffffff1673ffffffffffffffffffffffffffffffffffffffff1673ffffffffffffffffffffffffffffffffffffffff168152602001600282018054610d7390612c05565b80601f0160208091040260200160405190810160405280929190818152602001828054610d9f90612c05565b8015610dec5780601f10610dc157610100808354040283529160200191610dec565b820191906000526020600020905b815481529060010190602001808311610dcf57829003601f168201915b5050505050815260200160038201548152602001600482015481526020016005820160009054906101000a900460ff16151515158152505082600183610e3291906130b9565b81518110610e4357610e426130ed565b5b60200260200101819052508080610e599061311c565b915050610c54565b508091505090565b610e7a610e7461149c565b8361155d565b610eb9576040517f08c379a0000000000000000000000000000000000000000000000000000000008152600401610eb090612dcc565b60405180910390fd5b610ec584848484611a94565b50505050565b60076000815480929190610ede9061311c565b91905055506000600754905060006040518060c001604052808681526020013373ffffffffffffffffffffffffffffffffffffffff168152602001858152602001428152602001848152602001600015158152509050806006600060075481526020019081526020016000206000820151816000019081610f5f9190613310565b5060208201518160010160006101000a81548173ffffffffffffffffffffffffffffffffffffffff021916908373ffffffffffffffffffffffffffffffffffffffff1602179055506040820151816002019081610fbc9190613310565b50606082015181600301556080820151816004015560a08201518160050160006101000a81548160ff021916908315150217905550905050610ffe3383611af0565b3373ffffffffffffffffffffffffffffffffffffffff166007547f7d947412b2e027bd98da1e8b47e87b80aa0e8a6f0549b5eda4ca32310012253887866040516110499291906133e2565b60405180910390a35050505050565b606061106382611451565b600061106d611b0e565b9050600081511161108d57604051806020016040528060008152506110b8565b8061109784611b25565b6040516020016110a892919061344e565b6040516020818303038152906040525b915050919050565b813373ffffffffffffffffffffffffffffffffffffffff166006600083815260200190815260200160002060010160009054906101000a900473ffffffffffffffffffffffffffffffffffffffff1673ffffffffffffffffffffffffffffffffffffffff1614611165576040517f08c379a000000000000000000000000000000000000000000000000000000000815260040161115c906134e4565b60405180910390fd5b816006600085815260200190815260200160002060050160006101000a81548160ff021916908315150217905550827f34b4aa7df0aafc0d8a801fff725827d33114f67ad541d75f62bd49724bb827ad836040516111c391906122b7565b60405180910390a2505050565b6000600754905090565b6000600560008473ffffffffffffffffffffffffffffffffffffffff1673ffffffffffffffffffffffffffffffffffffffff16815260200190815260200160002060008373ffffffffffffffffffffffffffffffffffffffff1673ffffffffffffffffffffffffffffffffffffffff16815260200190815260200160002060009054906101000a900460ff16905092915050565b600660205280600052604060002060009150905080600001805461129190612c05565b80601f01602080910402602001604051908101604052809291908181526020018280546112bd90612c05565b801561130a5780601f106112df5761010080835404028352916020019161130a565b820191906000526020600020905b8154815290600101906020018083116112ed57829003601f168201915b5050505050908060010160009054906101000a900473ffffffffffffffffffffffffffffffffffffffff169080600201805461134590612c05565b80601f016020809104026020016040519081016040528092919081815260200182805461137190612c05565b80156113be5780601f10611393576101008083540402835291602001916113be565b820191906000526020600020905b8154815290600101906020018083116113a157829003601f168201915b5050505050908060030154908060040154908060050160009054906101000a900460ff16905086565b60007f01ffc9a7000000000000000000000000000000000000000000000000000000007bffffffffffffffffffffffffffffffffffffffffffffffffffffffff1916827bffffffffffffffffffffffffffffffffffffffffffffffffffffffff1916149050919050565b61145a81611bf3565b611499576040517f08c379a000000000000000000000000000000000000000000000000000000000815260040161149090612e38565b60405180910390fd5b50565b600033905090565b816004600083815260200190815260200160002060006101000a81548173ffffffffffffffffffffffffffffffffffffffff021916908373ffffffffffffffffffffffffffffffffffffffff160217905550808273ffffffffffffffffffffffffffffffffffffffff1661151783610753565b73ffffffffffffffffffffffffffffffffffffffff167f8c5be1e5ebec7d5bd14f71427d1e84f3dd0314c0f7b2291e5b200ac8c7c3b92560405160405180910390a45050565b60008061156983610753565b90508073ffffffffffffffffffffffffffffffffffffffff168473ffffffffffffffffffffffffffffffffffffffff1614806115ab57506115aa81856111da565b5b806115e957508373ffffffffffffffffffffffffffffffffffffffff166115d184610570565b73ffffffffffffffffffffffffffffffffffffffff16145b91505092915050565b8273ffffffffffffffffffffffffffffffffffffffff1661161282610753565b73ffffffffffffffffffffffffffffffffffffffff1614611668576040517f08c379a000000000000000000000000000000000000000000000000000000000815260040161165f90613576565b60405180910390fd5b600073ffffffffffffffffffffffffffffffffffffffff168273ffffffffffffffffffffffffffffffffffffffff16036116d7576040517f08c379a00000000000000000000000000000000000000000000000000000000081526004016116ce90613608565b60405180910390fd5b6116e48383836001611c34565b8273ffffffffffffffffffffffffffffffffffffffff1661170482610753565b73ffffffffffffffffffffffffffffffffffffffff161461175a576040517f08c379a000000000000000000000000000000000000000000000000000000000815260040161175190613576565b60405180910390fd5b6004600082815260200190815260200160002060006101000a81549073ffffffffffffffffffffffffffffffffffffffff02191690556001600360008573ffffffffffffffffffffffffffffffffffffffff1673ffffffffffffffffffffffffffffffffffffffff168152602001908152602001600020600082825403925050819055506001600360008473ffffffffffffffffffffffffffffffffffffffff1673ffffffffffffffffffffffffffffffffffffffff16815260200190815260200160002060008282540192505081905550816002600083815260200190815260200160002060006101000a81548173ffffffffffffffffffffffffffffffffffffffff021916908373ffffffffffffffffffffffffffffffffffffffff160217905550808273ffffffffffffffffffffffffffffffffffffffff168473ffffffffffffffffffffffffffffffffffffffff167fddf252ad1be2c89b69c2b068fc378daa952ba7f163c4a11628f55a4df523b3ef60405160405180910390a46118e68383836001611c3a565b505050565b60006002600083815260200190815260200160002060009054906101000a900473ffffffffffffffffffffffffffffffffffffffff169050919050565b8173ffffffffffffffffffffffffffffffffffffffff168373ffffffffffffffffffffffffffffffffffffffff1603611996576040517f08c379a000000000000000000000000000000000000000000000000000000000815260040161198d90613674565b60405180910390fd5b80600560008573ffffffffffffffffffffffffffffffffffffffff1673ffffffffffffffffffffffffffffffffffffffff16815260200190815260200160002060008473ffffffffffffffffffffffffffffffffffffffff1673ffffffffffffffffffffffffffffffffffffffff16815260200190815260200160002060006101000a81548160ff0219169083151502179055508173ffffffffffffffffffffffffffffffffffffffff168373ffffffffffffffffffffffffffffffffffffffff167f17307eab39ab6107e8899845ad3d59bd9653f200f220920489ca2b5937696c3183604051611a8791906122b7565b60405180910390a3505050565b611a9f8484846115f2565b611aab84848484611c40565b611aea576040517f08c379a0000000000000000000000000000000000000000000000000000000008152600401611ae190613706565b60405180910390fd5b50505050565b611b0a828260405180602001604052806000815250611dc7565b5050565b606060405180602001604052806000815250905090565b606060006001611b3484611e22565b01905060008167ffffffffffffffff811115611b5357611b5261280d565b5b6040519080825280601f01601f191660200182016040528015611b855781602001600182028036833780820191505090505b509050600082602001820190505b600115611be8578080600190039150507f3031323334353637383961626364656600000000000000000000000000000000600a86061a8153600a8581611bdc57611bdb612f5b565b5b04945060008503611b93575b819350505050919050565b60008073ffffffffffffffffffffffffffffffffffffffff16611c15836118eb565b73ffffffffffffffffffffffffffffffffffffffff1614159050919050565b50505050565b50505050565b6000611c618473ffffffffffffffffffffffffffffffffffffffff16611f75565b15611dba578373ffffffffffffffffffffffffffffffffffffffff1663150b7a02611c8a61149c565b8786866040518563ffffffff1660e01b8152600401611cac949392919061377b565b6020604051808303816000875af1925050508015611ce857506040513d601f19601f82011682018060405250810190611ce591906137dc565b60015b611d6a573d8060008114611d18576040519150601f19603f3d011682016040523d82523d6000602084013e611d1d565b606091505b506000815103611d62576040517f08c379a0000000000000000000000000000000000000000000000000000000008152600401611d5990613706565b60405180910390fd5b805181602001fd5b63150b7a0260e01b7bffffffffffffffffffffffffffffffffffffffffffffffffffffffff1916817bffffffffffffffffffffffffffffffffffffffffffffffffffffffff191614915050611dbf565b600190505b949350505050565b611dd18383611f98565b611dde6000848484611c40565b611e1d576040517f08c379a0000000000000000000000000000000000000000000000000000000008152600401611e1490613706565b60405180910390fd5b505050565b600080600090507a184f03e93ff9f4daa797ed6e38ed64bf6a1f0100000000000000008310611e80577a184f03e93ff9f4daa797ed6e38ed64bf6a1f0100000000000000008381611e7657611e75612f5b565b5b0492506040810190505b6d04ee2d6d415b85acef81000000008310611ebd576d04ee2d6d415b85acef81000000008381611eb357611eb2612f5b565b5b0492506020810190505b662386f26fc100008310611eec57662386f26fc100008381611ee257611ee1612f5b565b5b0492506010810190505b6305f5e1008310611f15576305f5e1008381611f0b57611f0a612f5b565b5b0492506008810190505b6127108310611f3a576127108381611f3057611f2f612f5b565b5b0492506004810190505b60648310611f5d5760648381611f5357611f52612f5b565b5b0492506002810190505b600a8310611f6c576001810190505b80915050919050565b6000808273ffffffffffffffffffffffffffffffffffffffff163b119050919050565b600073ffffffffffffffffffffffffffffffffffffffff168273ffffffffffffffffffffffffffffffffffffffff1603612007576040517f08c379a0000000000000000000000000000000000000000000000000000000008152600401611ffe90613855565b60405180910390fd5b61201081611bf3565b15612050576040517f08c379a0000000000000000000000000000000000000000000000000000000008152600401612047906138c1565b60405180910390fd5b61205e600083836001611c34565b61206781611bf3565b156120a7576040517f08c379a000000000000000000000000000000000000000000000000000000000815260040161209e906138c1565b60405180910390fd5b6001600360008473ffffffffffffffffffffffffffffffffffffffff1673ffffffffffffffffffffffffffffffffffffffff16815260200190815260200160002060008282540192505081905550816002600083815260200190815260200160002060006101000a81548173ffffffffffffffffffffffffffffffffffffffff021916908373ffffffffffffffffffffffffffffffffffffffff160217905550808273ffffffffffffffffffffffffffffffffffffffff16600073ffffffffffffffffffffffffffffffffffffffff167fddf252ad1be2c89b69c2b068fc378daa952ba7f163c4a11628f55a4df523b3ef60405160405180910390a46121b1600083836001611c3a565b5050565b6040518060c0016040528060608152602001600073ffffffffffffffffffffffffffffffffffffffff1681526020016060815260200160008152602001600081526020016000151581525090565b6000604051905090565b600080fd5b600080fd5b60007fffffffff0000000000000000000000000000000000000000000000000000000082169050919050565b61224c81612217565b811461225757600080fd5b50565b60008135905061226981612243565b92915050565b6000602082840312156122855761228461220d565b5b60006122938482850161225a565b91505092915050565b60008115159050919050565b6122b18161229c565b82525050565b60006020820190506122cc60008301846122a8565b92915050565b600081519050919050565b600082825260208201905092915050565b60005b8381101561230c5780820151818401526020810190506122f1565b60008484015250505050565b6000601f19601f8301169050919050565b6000612334826122d2565b61233e81856122dd565b935061234e8185602086016122ee565b61235781612318565b840191505092915050565b6000602082019050818103600083015261237c8184612329565b905092915050565b6000819050919050565b61239781612384565b81146123a257600080fd5b50565b6000813590506123b48161238e565b92915050565b6000602082840312156123d0576123cf61220d565b5b60006123de848285016123a5565b91505092915050565b600073ffffffffffffffffffffffffffffffffffffffff82169050919050565b6000612412826123e7565b9050919050565b61242281612407565b82525050565b600060208201905061243d6000830184612419565b92915050565b61244c81612407565b811461245757600080fd5b50565b60008135905061246981612443565b92915050565b600080604083850312156124865761248561220d565b5b60006124948582860161245a565b92505060206124a5858286016123a5565b9150509250929050565b6000806000606084860312156124c8576124c761220d565b5b60006124d68682870161245a565b93505060206124e78682870161245a565b92505060406124f8868287016123a5565b9150509250925092565b61250b81612384565b82525050565b60006020820190506125266000830184612502565b92915050565b6000602082840312156125425761254161220d565b5b60006125508482850161245a565b91505092915050565b6000806000606084860312156125725761257161220d565b5b6000612580868287016123a5565b93505060206125918682870161245a565b92505060406125a2868287016123a5565b9150509250925092565b6125b58161229c565b81146125c057600080fd5b50565b6000813590506125d2816125ac565b92915050565b600080604083850312156125ef576125ee61220d565b5b60006125fd8582860161245a565b925050602061260e858286016125c3565b9150509250929050565b600081519050919050565b600082825260208201905092915050565b6000819050602082019050919050565b600082825260208201905092915050565b6000612660826122d2565b61266a8185612644565b935061267a8185602086016122ee565b61268381612318565b840191505092915050565b61269781612407565b82525050565b6126a681612384565b82525050565b6126b58161229c565b82525050565b600060c08301600083015184820360008601526126d88282612655565b91505060208301516126ed602086018261268e565b50604083015184820360408601526127058282612655565b915050606083015161271a606086018261269d565b50608083015161272d608086018261269d565b5060a083015161274060a08601826126ac565b508091505092915050565b600061275783836126bb565b905092915050565b6000602082019050919050565b600061277782612618565b6127818185612623565b93508360208202850161279385612634565b8060005b858110156127cf57848403895281516127b0858261274b565b94506127bb8361275f565b925060208a01995050600181019050612797565b50829750879550505050505092915050565b600060208201905081810360008301526127fb818461276c565b905092915050565b600080fd5b600080fd5b7f4e487b7100000000000000000000000000000000000000000000000000000000600052604160045260246000fd5b61284582612318565b810181811067ffffffffffffffff821117156128645761286361280d565b5b80604052505050565b6000612877612203565b9050612883828261283c565b919050565b600067ffffffffffffffff8211156128a3576128a261280d565b5b6128ac82612318565b9050602081019050919050565b82818337600083830152505050565b60006128db6128d684612888565b61286d565b9050828152602081018484840111156128f7576128f6612808565b5b6129028482856128b9565b509392505050565b600082601f83011261291f5761291e612803565b5b813561292f8482602086016128c8565b91505092915050565b600080600080608085870312156129525761295161220d565b5b60006129608782880161245a565b94505060206129718782880161245a565b9350506040612982878288016123a5565b925050606085013567ffffffffffffffff8111156129a3576129a2612212565b5b6129af8782880161290a565b91505092959194509250565b600067ffffffffffffffff8211156129d6576129d561280d565b5b6129df82612318565b9050602081019050919050565b60006129ff6129fa846129bb565b61286d565b905082815260208101848484011115612a1b57612a1a612808565b5b612a268482856128b9565b509392505050565b600082601f830112612a4357612a42612803565b5b8135612a538482602086016129ec565b91505092915050565b600080600060608486031215612a7557612a7461220d565b5b600084013567ffffffffffffffff811115612a9357612a92612212565b5b612a9f86828701612a2e565b935050602084013567ffffffffffffffff811115612ac057612abf612212565b5b612acc86828701612a2e565b9250506040612add868287016123a5565b9150509250925092565b60008060408385031215612afe57612afd61220d565b5b6000612b0c858286016123a5565b9250506020612b1d858286016125c3565b9150509250929050565b60008060408385031215612b3e57612b3d61220d565b5b6000612b4c8582860161245a565b9250506020612b5d8582860161245a565b9150509250929050565b600060c0820190508181036000830152612b818189612329565b9050612b906020830188612419565b8181036040830152612ba28187612329565b9050612bb16060830186612502565b612bbe6080830185612502565b612bcb60a08301846122a8565b979650505050505050565b7f4e487b7100000000000000000000000000000000000000000000000000000000600052602260045260246000fd5b60006002820490506001821680612c1d57607f821691505b602082108103612c3057612c2f612bd6565b5b50919050565b7f4552433732313a20617070726f76616c20746f2063757272656e74206f776e6560008201527f7200000000000000000000000000000000000000000000000000000000000000602082015250565b6000612c926021836122dd565b9150612c9d82612c36565b604082019050919050565b60006020820190508181036000830152612cc181612c85565b9050919050565b7f4552433732313a20617070726f76652063616c6c6572206973206e6f7420746f60008201527f6b656e206f776e6572206f7220617070726f76656420666f7220616c6c000000602082015250565b6000612d24603d836122dd565b9150612d2f82612cc8565b604082019050919050565b60006020820190508181036000830152612d5381612d17565b9050919050565b7f4552433732313a2063616c6c6572206973206e6f7420746f6b656e206f776e6560008201527f72206f7220617070726f76656400000000000000000000000000000000000000602082015250565b6000612db6602d836122dd565b9150612dc182612d5a565b604082019050919050565b60006020820190508181036000830152612de581612da9565b9050919050565b7f4552433732313a20696e76616c696420746f6b656e2049440000000000000000600082015250565b6000612e226018836122dd565b9150612e2d82612dec565b602082019050919050565b60006020820190508181036000830152612e5181612e15565b9050919050565b7f4552433732313a2061646472657373207a65726f206973206e6f74206120766160008201527f6c6964206f776e65720000000000000000000000000000000000000000000000602082015250565b6000612eb46029836122dd565b9150612ebf82612e58565b604082019050919050565b60006020820190508181036000830152612ee381612ea7565b9050919050565b7f4e487b7100000000000000000000000000000000000000000000000000000000600052601160045260246000fd5b6000612f2482612384565b9150612f2f83612384565b9250828202612f3d81612384565b91508282048414831517612f5457612f53612eea565b5b5092915050565b7f4e487b7100000000000000000000000000000000000000000000000000000000600052601260045260246000fd5b6000612f9582612384565b9150612fa083612384565b925082612fb057612faf612f5b565b5b828204905092915050565b7f45786368616e6765206e6f742070726f66697461626c6520656e6f756768202860008201527f3e31302529000000000000000000000000000000000000000000000000000000602082015250565b60006130176025836122dd565b915061302282612fbb565b604082019050919050565b600060208201905081810360008301526130468161300a565b9050919050565b7f41727469636c65206e6f74206d61726b656420666f722073616c650000000000600082015250565b6000613083601b836122dd565b915061308e8261304d565b602082019050919050565b600060208201905081810360008301526130b281613076565b9050919050565b60006130c482612384565b91506130cf83612384565b92508282039050818111156130e7576130e6612eea565b5b92915050565b7f4e487b7100000000000000000000000000000000000000000000000000000000600052603260045260246000fd5b600061312782612384565b91507fffffffffffffffffffffffffffffffffffffffffffffffffffffffffffffffff820361315957613158612eea565b5b600182019050919050565b60008190508160005260206000209050919050565b60006020601f8301049050919050565b600082821b905092915050565b6000600883026131c67fffffffffffffffffffffffffffffffffffffffffffffffffffffffffffffffff82613189565b6131d08683613189565b95508019841693508086168417925050509392505050565b6000819050919050565b600061320d61320861320384612384565b6131e8565b612384565b9050919050565b6000819050919050565b613227836131f2565b61323b61323382613214565b848454613196565b825550505050565b600090565b613250613243565b61325b81848461321e565b505050565b5b8181101561327f57613274600082613248565b600181019050613261565b5050565b601f8211156132c45761329581613164565b61329e84613179565b810160208510156132ad578190505b6132c16132b985613179565b830182613260565b50505b505050565b600082821c905092915050565b60006132e7600019846008026132c9565b1980831691505092915050565b600061330083836132d6565b9150826002028217905092915050565b613319826122d2565b67ffffffffffffffff8111156133325761333161280d565b5b61333c8254612c05565b613347828285613283565b600060209050601f83116001811461337a5760008415613368578287015190505b61337285826132f4565b8655506133da565b601f19841661338886613164565b60005b828110156133b05784890151825560018201915060208501945060208101905061338b565b868310156133cd57848901516133c9601f8916826132d6565b8355505b6001600288020188555050505b505050505050565b600060408201905081810360008301526133fc8185612329565b905061340b6020830184612502565b9392505050565b600081905092915050565b6000613428826122d2565b6134328185613412565b93506134428185602086016122ee565b80840191505092915050565b600061345a828561341d565b9150613466828461341d565b91508190509392505050565b7f596f7520617265206e6f7420746865206f776e6572206f66207468697320617260008201527f7469636c65000000000000000000000000000000000000000000000000000000602082015250565b60006134ce6025836122dd565b91506134d982613472565b604082019050919050565b600060208201905081810360008301526134fd816134c1565b9050919050565b7f4552433732313a207472616e736665722066726f6d20696e636f72726563742060008201527f6f776e6572000000000000000000000000000000000000000000000000000000602082015250565b60006135606025836122dd565b915061356b82613504565b604082019050919050565b6000602082019050818103600083015261358f81613553565b9050919050565b7f4552433732313a207472616e7366657220746f20746865207a65726f2061646460008201527f7265737300000000000000000000000000000000000000000000000000000000602082015250565b60006135f26024836122dd565b91506135fd82613596565b604082019050919050565b60006020820190508181036000830152613621816135e5565b9050919050565b7f4552433732313a20617070726f766520746f2063616c6c657200000000000000600082015250565b600061365e6019836122dd565b915061366982613628565b602082019050919050565b6000602082019050818103600083015261368d81613651565b9050919050565b7f4552433732313a207472616e7366657220746f206e6f6e20455243373231526560008201527f63656976657220696d706c656d656e7465720000000000000000000000000000602082015250565b60006136f06032836122dd565b91506136fb82613694565b604082019050919050565b6000602082019050818103600083015261371f816136e3565b9050919050565b600081519050919050565b600082825260208201905092915050565b600061374d82613726565b6137578185613731565b93506137678185602086016122ee565b61377081612318565b840191505092915050565b60006080820190506137906000830187612419565b61379d6020830186612419565b6137aa6040830185612502565b81810360608301526137bc8184613742565b905095945050505050565b6000815190506137d681612243565b92915050565b6000602082840312156137f2576137f161220d565b5b6000613800848285016137c7565b91505092915050565b7f4552433732313a206d696e7420746f20746865207a65726f2061646472657373600082015250565b600061383f6020836122dd565b915061384a82613809565b602082019050919050565b6000602082019050818103600083015261386e81613832565b9050919050565b7f4552433732313a20746f6b656e20616c7265616479206d696e74656400000000600082015250565b60006138ab601c836122dd565b91506138b682613875565b602082019050919050565b600060208201905081810360008301526138da8161389e565b905091905056fea26469706673582212206034befda602d2ecf87acf230d15093b17a5cea242553120e3c314c32b2d271264736f6c63430008120033",
  "linkReferences": {},
  "deployedLinkReferences": {}
}