{
  "_format": "hh-sol-artifact-1",
  "contractName": "ArticlesContract120",
  "sourceName": "contracts/Articles.sol",
  "abi": [
    {
      "inputs": [],
      "stateMutability": "nonpayable",
      "type": "constructor"
    },
    {
      "anonymous": false,
      "inputs": [
        {
          "indexed": true,
          "internalType": "address",
          "name": "owner",
          "type": "address"
        },
        {
          "indexed": true,
          "internalType": "address",
          "name": "approved",
          "type": "address"
        },
        {
          "indexed": true,
          "internalType": "uint256",
          "name": "tokenId",
          "type": "uint256"
        }
      ],
      "name": "Approval",
      "type": "event"
    },
    {
      "anonymous": false,
      "inputs": [
        {
          "indexed": true,
          "internalType": "address",
          "name": "owner",
          "type": "address"
        },
        {
          "indexed": true,
          "internalType": "address",
          "name": "operator",
          "type": "address"
        },
        {
          "indexed": false,
          "internalType": "bool",
          "name": "approved",
          "type": "bool"
        }
      ],
      "name": "ApprovalForAll",
      "type": "event"
    },
    {
      "anonymous": false,
      "inputs": [
        {
          "indexed": true,
          "internalType": "uint256",
          "name": "articleId",
          "type": "uint256"
        },
        {
          "indexed": false,
          "internalType": "string",
          "name": "content",
          "type": "string"
        },
        {
          "indexed": true,
          "internalType": "address",
          "name": "owner",
          "type": "address"
        },
        {
          "indexed": false,
          "internalType": "uint256",
          "name": "amount",
          "type": "uint256"
        }
      ],
      "name": "ArticleCreated",
      "type": "event"
    },
    {
      "anonymous": false,
      "inputs": [
        {
          "indexed": true,
          "internalType": "uint256",
          "name": "articleId",
          "type": "uint256"
        },
        {
          "indexed": false,
          "internalType": "bool",
          "name": "newExchangeable",
          "type": "bool"
        }
      ],
      "name": "ArticleExchangeable",
      "type": "event"
    },
    {
      "anonymous": false,
      "inputs": [
        {
          "indexed": true,
          "internalType": "uint256",
          "name": "articleId",
          "type": "uint256"
        },
        {
          "indexed": true,
          "internalType": "address",
          "name": "oldOwner",
          "type": "address"
        }
      ],
      "name": "ArticleSold",
      "type": "event"
    },
    {
      "anonymous": false,
      "inputs": [
        {
          "indexed": true,
          "internalType": "address",
          "name": "from",
          "type": "address"
        },
        {
          "indexed": true,
          "internalType": "address",
          "name": "to",
          "type": "address"
        },
        {
          "indexed": true,
          "internalType": "uint256",
          "name": "tokenId",
          "type": "uint256"
        }
      ],
      "name": "Transfer",
      "type": "event"
    },
    {
      "inputs": [
        {
          "internalType": "address",
          "name": "to",
          "type": "address"
        },
        {
          "internalType": "uint256",
          "name": "tokenId",
          "type": "uint256"
        }
      ],
      "name": "approve",
      "outputs": [],
      "stateMutability": "nonpayable",
      "type": "function"
    },
    {
      "inputs": [],
      "name": "articleCount",
      "outputs": [
        {
          "internalType": "uint256",
          "name": "",
          "type": "uint256"
        }
      ],
      "stateMutability": "view",
      "type": "function"
    },
    {
      "inputs": [
        {
          "internalType": "uint256",
          "name": "",
          "type": "uint256"
        }
      ],
      "name": "articles",
      "outputs": [
        {
          "internalType": "uint256",
          "name": "id",
          "type": "uint256"
        },
        {
          "internalType": "string",
          "name": "content",
          "type": "string"
        },
        {
          "internalType": "address",
          "name": "owner",
          "type": "address"
        },
        {
          "internalType": "string",
          "name": "tags",
          "type": "string"
        },
        {
          "internalType": "uint256",
          "name": "created",
          "type": "uint256"
        },
        {
          "internalType": "uint256",
          "name": "amount",
          "type": "uint256"
        },
        {
          "internalType": "bool",
          "name": "exchangeable",
          "type": "bool"
        }
      ],
      "stateMutability": "view",
      "type": "function"
    },
    {
      "inputs": [
        {
          "internalType": "address",
          "name": "owner",
          "type": "address"
        }
      ],
      "name": "balanceOf",
      "outputs": [
        {
          "internalType": "uint256",
          "name": "",
          "type": "uint256"
        }
      ],
      "stateMutability": "view",
      "type": "function"
    },
    {
      "inputs": [
        {
          "internalType": "string",
          "name": "_content",
          "type": "string"
        },
        {
          "internalType": "string",
          "name": "_tags",
          "type": "string"
        }
      ],
      "name": "createArticle",
      "outputs": [],
      "stateMutability": "payable",
      "type": "function"
    },
    {
      "inputs": [
        {
          "internalType": "uint256",
          "name": "_articleId",
          "type": "uint256"
        }
      ],
      "name": "exchangeArticle",
      "outputs": [],
      "stateMutability": "payable",
      "type": "function"
    },
    {
      "inputs": [
        {
          "internalType": "uint256",
          "name": "_articleId",
          "type": "uint256"
        },
        {
          "internalType": "bool",
          "name": "_exchangeable",
          "type": "bool"
        }
      ],
      "name": "exchangeableArticle",
      "outputs": [],
      "stateMutability": "nonpayable",
      "type": "function"
    },
    {
      "inputs": [],
      "name": "getAllArticles",
      "outputs": [
        {
          "components": [
            {
              "internalType": "uint256",
              "name": "id",
              "type": "uint256"
            },
            {
              "internalType": "string",
              "name": "content",
              "type": "string"
            },
            {
              "internalType": "address",
              "name": "owner",
              "type": "address"
            },
            {
              "internalType": "string",
              "name": "tags",
              "type": "string"
            },
            {
              "internalType": "uint256",
              "name": "created",
              "type": "uint256"
            },
            {
              "internalType": "uint256",
              "name": "amount",
              "type": "uint256"
            },
            {
              "internalType": "bool",
              "name": "exchangeable",
              "type": "bool"
            }
          ],
          "internalType": "struct ArticlesContract120.Article[]",
          "name": "",
          "type": "tuple[]"
        }
      ],
      "stateMutability": "view",
      "type": "function"
    },
    {
      "inputs": [
        {
          "internalType": "uint256",
          "name": "tokenId",
          "type": "uint256"
        }
      ],
      "name": "getApproved",
      "outputs": [
        {
          "internalType": "address",
          "name": "",
          "type": "address"
        }
      ],
      "stateMutability": "view",
      "type": "function"
    },
    {
      "inputs": [],
      "name": "getArticleCount",
      "outputs": [
        {
          "internalType": "uint256",
          "name": "",
          "type": "uint256"
        }
      ],
      "stateMutability": "view",
      "type": "function"
    },
    {
      "inputs": [
        {
          "internalType": "address",
          "name": "owner",
          "type": "address"
        },
        {
          "internalType": "address",
          "name": "operator",
          "type": "address"
        }
      ],
      "name": "isApprovedForAll",
      "outputs": [
        {
          "internalType": "bool",
          "name": "",
          "type": "bool"
        }
      ],
      "stateMutability": "view",
      "type": "function"
    },
    {
      "inputs": [],
      "name": "manager",
      "outputs": [
        {
          "internalType": "address payable",
          "name": "",
          "type": "address"
        }
      ],
      "stateMutability": "view",
      "type": "function"
    },
    {
      "inputs": [],
      "name": "name",
      "outputs": [
        {
          "internalType": "string",
          "name": "",
          "type": "string"
        }
      ],
      "stateMutability": "view",
      "type": "function"
    },
    {
      "inputs": [
        {
          "internalType": "uint256",
          "name": "tokenId",
          "type": "uint256"
        }
      ],
      "name": "ownerOf",
      "outputs": [
        {
          "internalType": "address",
          "name": "",
          "type": "address"
        }
      ],
      "stateMutability": "view",
      "type": "function"
    },
    {
      "inputs": [],
      "name": "price",
      "outputs": [
        {
          "internalType": "uint256",
          "name": "",
          "type": "uint256"
        }
      ],
      "stateMutability": "view",
      "type": "function"
    },
    {
      "inputs": [
        {
          "internalType": "address",
          "name": "from",
          "type": "address"
        },
        {
          "internalType": "address",
          "name": "to",
          "type": "address"
        },
        {
          "internalType": "uint256",
          "name": "tokenId",
          "type": "uint256"
        }
      ],
      "name": "safeTransferFrom",
      "outputs": [],
      "stateMutability": "nonpayable",
      "type": "function"
    },
    {
      "inputs": [
        {
          "internalType": "address",
          "name": "from",
          "type": "address"
        },
        {
          "internalType": "address",
          "name": "to",
          "type": "address"
        },
        {
          "internalType": "uint256",
          "name": "tokenId",
          "type": "uint256"
        },
        {
          "internalType": "bytes",
          "name": "data",
          "type": "bytes"
        }
      ],
      "name": "safeTransferFrom",
      "outputs": [],
      "stateMutability": "nonpayable",
      "type": "function"
    },
    {
      "inputs": [
        {
          "internalType": "address",
          "name": "operator",
          "type": "address"
        },
        {
          "internalType": "bool",
          "name": "approved",
          "type": "bool"
        }
      ],
      "name": "setApprovalForAll",
      "outputs": [],
      "stateMutability": "nonpayable",
      "type": "function"
    },
    {
      "inputs": [
        {
          "internalType": "bytes4",
          "name": "interfaceId",
          "type": "bytes4"
        }
      ],
      "name": "supportsInterface",
      "outputs": [
        {
          "internalType": "bool",
          "name": "",
          "type": "bool"
        }
      ],
      "stateMutability": "view",
      "type": "function"
    },
    {
      "inputs": [],
      "name": "symbol",
      "outputs": [
        {
          "internalType": "string",
          "name": "",
          "type": "string"
        }
      ],
      "stateMutability": "view",
      "type": "function"
    },
    {
      "inputs": [
        {
          "internalType": "uint256",
          "name": "tokenId",
          "type": "uint256"
        }
      ],
      "name": "tokenURI",
      "outputs": [
        {
          "internalType": "string",
          "name": "",
          "type": "string"
        }
      ],
      "stateMutability": "view",
      "type": "function"
    },
    {
      "inputs": [
        {
          "internalType": "address",
          "name": "from",
          "type": "address"
        },
        {
          "internalType": "address",
          "name": "to",
          "type": "address"
        },
        {
          "internalType": "uint256",
          "name": "tokenId",
          "type": "uint256"
        }
      ],
      "name": "transferFrom",
      "outputs": [],
      "stateMutability": "nonpayable",
      "type": "function"
    },
    {
      "inputs": [],
      "name": "withdraw",
      "outputs": [],
      "stateMutability": "nonpayable",
      "type": "function"
    }
  ],
  "bytecode": "0x60806040523480156200001157600080fd5b506040518060400160405280600881526020017f41727469636c65730000000000000000000000000000000000000000000000008152506040518060400160405280600381526020017f415254000000000000000000000000000000000000000000000000000000000081525081600090816200008f919062000365565b508060019081620000a1919062000365565b50505033600660006101000a81548173ffffffffffffffffffffffffffffffffffffffff021916908373ffffffffffffffffffffffffffffffffffffffff1602179055506200044c565b600081519050919050565b7f4e487b7100000000000000000000000000000000000000000000000000000000600052604160045260246000fd5b7f4e487b7100000000000000000000000000000000000000000000000000000000600052602260045260246000fd5b600060028204905060018216806200016d57607f821691505b60208210810362000183576200018262000125565b5b50919050565b60008190508160005260206000209050919050565b60006020601f8301049050919050565b600082821b905092915050565b600060088302620001ed7fffffffffffffffffffffffffffffffffffffffffffffffffffffffffffffffff82620001ae565b620001f98683620001ae565b95508019841693508086168417925050509392505050565b6000819050919050565b6000819050919050565b600062000246620002406200023a8462000211565b6200021b565b62000211565b9050919050565b6000819050919050565b620002628362000225565b6200027a62000271826200024d565b848454620001bb565b825550505050565b600090565b6200029162000282565b6200029e81848462000257565b505050565b5b81811015620002c657620002ba60008262000287565b600181019050620002a4565b5050565b601f8211156200031557620002df8162000189565b620002ea846200019e565b81016020851015620002fa578190505b6200031262000309856200019e565b830182620002a3565b50505b505050565b600082821c905092915050565b60006200033a600019846008026200031a565b1980831691505092915050565b600062000355838362000327565b9150826002028217905092915050565b6200037082620000eb565b67ffffffffffffffff8111156200038c576200038b620000f6565b5b62000398825462000154565b620003a5828285620002ca565b600060209050601f831160018114620003dd5760008415620003c8578287015190505b620003d4858262000347565b86555062000444565b601f198416620003ed8662000189565b60005b828110156200041757848901518255600182019150602085019450602081019050620003f0565b8683101562000437578489015162000433601f89168262000327565b8355505b6001600288020188555050505b505050505050565b613cbc806200045c6000396000f3fe6080604052600436106101405760003560e01c80638cfa2272116100b6578063b97cd6b01161006f578063b97cd6b01461043b578063c87b56dd14610457578063d453385914610494578063e899d5ff146104bd578063e985e9c5146104e8578063edcfafe61461052557610140565b80638cfa22721461034c57806395d89b4114610368578063a035b1fe14610393578063a22cb465146103be578063b44d310b146103e7578063b88d4fde1461041257610140565b80633ccfd60b116101085780633ccfd60b1461023c578063414e28b01461025357806342842e0e1461027e578063481c6a75146102a75780636352211e146102d257806370a082311461030f57610140565b806301ffc9a71461014557806306fdde0314610182578063081812fc146101ad578063095ea7b3146101ea57806323b872dd14610213575b600080fd5b34801561015157600080fd5b5061016c60048036038101906101679190612545565b610568565b604051610179919061258d565b60405180910390f35b34801561018e57600080fd5b5061019761064a565b6040516101a49190612638565b60405180910390f35b3480156101b957600080fd5b506101d460048036038101906101cf9190612690565b6106dc565b6040516101e191906126fe565b60405180910390f35b3480156101f657600080fd5b50610211600480360381019061020c9190612745565b610722565b005b34801561021f57600080fd5b5061023a60048036038101906102359190612785565b610839565b005b34801561024857600080fd5b50610251610899565b005b34801561025f57600080fd5b50610268610994565b60405161027591906127e7565b60405180910390f35b34801561028a57600080fd5b506102a560048036038101906102a09190612785565b61099a565b005b3480156102b357600080fd5b506102bc6109ba565b6040516102c99190612823565b60405180910390f35b3480156102de57600080fd5b506102f960048036038101906102f49190612690565b6109e0565b60405161030691906126fe565b60405180910390f35b34801561031b57600080fd5b506103366004803603810190610331919061283e565b610a66565b60405161034391906127e7565b60405180910390f35b610366600480360381019061036191906129a0565b610b1d565b005b34801561037457600080fd5b5061037d610d02565b60405161038a9190612638565b60405180910390f35b34801561039f57600080fd5b506103a8610d94565b6040516103b591906127e7565b60405180910390f35b3480156103ca57600080fd5b506103e560048036038101906103e09190612a44565b610d9f565b005b3480156103f357600080fd5b506103fc610db5565b6040516104099190612c60565b60405180910390f35b34801561041e57600080fd5b5061043960048036038101906104349190612d23565b611037565b005b61045560048036038101906104509190612690565b611099565b005b34801561046357600080fd5b5061047e60048036038101906104799190612690565b611321565b60405161048b9190612638565b60405180910390f35b3480156104a057600080fd5b506104bb60048036038101906104b69190612da6565b611389565b005b3480156104c957600080fd5b506104d2611499565b6040516104df91906127e7565b60405180910390f35b3480156104f457600080fd5b5061050f600480360381019061050a9190612de6565b6114a3565b60405161051c919061258d565b60405180910390f35b34801561053157600080fd5b5061054c60048036038101906105479190612690565b611537565b60405161055f9796959493929190612e26565b60405180910390f35b60007f80ac58cd000000000000000000000000000000000000000000000000000000007bffffffffffffffffffffffffffffffffffffffffffffffffffffffff1916827bffffffffffffffffffffffffffffffffffffffffffffffffffffffff1916148061063357507f5b5e139f000000000000000000000000000000000000000000000000000000007bffffffffffffffffffffffffffffffffffffffffffffffffffffffff1916827bffffffffffffffffffffffffffffffffffffffffffffffffffffffff1916145b806106435750610642826116b6565b5b9050919050565b60606000805461065990612ed2565b80601f016020809104026020016040519081016040528092919081815260200182805461068590612ed2565b80156106d25780601f106106a7576101008083540402835291602001916106d2565b820191906000526020600020905b8154815290600101906020018083116106b557829003601f168201915b5050505050905090565b60006106e782611720565b6004600083815260200190815260200160002060009054906101000a900473ffffffffffffffffffffffffffffffffffffffff169050919050565b600061072d826109e0565b90508073ffffffffffffffffffffffffffffffffffffffff168373ffffffffffffffffffffffffffffffffffffffff160361079d576040517f08c379a000000000000000000000000000000000000000000000000000000000815260040161079490612f75565b60405180910390fd5b8073ffffffffffffffffffffffffffffffffffffffff166107bc61176b565b73ffffffffffffffffffffffffffffffffffffffff1614806107eb57506107ea816107e561176b565b6114a3565b5b61082a576040517f08c379a000000000000000000000000000000000000000000000000000000000815260040161082190613007565b60405180910390fd5b6108348383611773565b505050565b61084a61084461176b565b8261182c565b610889576040517f08c379a000000000000000000000000000000000000000000000000000000000815260040161088090613099565b60405180910390fd5b6108948383836118c1565b505050565b600660009054906101000a900473ffffffffffffffffffffffffffffffffffffffff1673ffffffffffffffffffffffffffffffffffffffff163373ffffffffffffffffffffffffffffffffffffffff1614610929576040517f08c379a000000000000000000000000000000000000000000000000000000000815260040161092090613105565b60405180910390fd5b600660009054906101000a900473ffffffffffffffffffffffffffffffffffffffff1673ffffffffffffffffffffffffffffffffffffffff166108fc479081150290604051600060405180830381858888f19350505050158015610991573d6000803e3d6000fd5b50565b60075481565b6109b583838360405180602001604052806000815250611037565b505050565b600660009054906101000a900473ffffffffffffffffffffffffffffffffffffffff1681565b6000806109ec83611bba565b9050600073ffffffffffffffffffffffffffffffffffffffff168173ffffffffffffffffffffffffffffffffffffffff1603610a5d576040517f08c379a0000000000000000000000000000000000000000000000000000000008152600401610a5490613171565b60405180910390fd5b80915050919050565b60008073ffffffffffffffffffffffffffffffffffffffff168273ffffffffffffffffffffffffffffffffffffffff1603610ad6576040517f08c379a0000000000000000000000000000000000000000000000000000000008152600401610acd90613203565b60405180910390fd5b600360008373ffffffffffffffffffffffffffffffffffffffff1673ffffffffffffffffffffffffffffffffffffffff168152602001908152602001600020549050919050565b662386f26fc100003410610b66576040517f08c379a0000000000000000000000000000000000000000000000000000000008152600401610b5d9061326f565b60405180910390fd5b60076000815480929190610b79906132be565b91905055506000600754905060006040518060e001604052808381526020018581526020013373ffffffffffffffffffffffffffffffffffffffff16815260200184815260200142815260200134815260200160001515815250905080600860006007548152602001908152602001600020600082015181600001556020820151816001019081610c0a91906134b2565b5060408201518160020160006101000a81548173ffffffffffffffffffffffffffffffffffffffff021916908373ffffffffffffffffffffffffffffffffffffffff1602179055506060820151816003019081610c6791906134b2565b506080820151816004015560a0820151816005015560c08201518160060160006101000a81548160ff021916908315150217905550905050610ca93383611bf7565b3373ffffffffffffffffffffffffffffffffffffffff166007547f7d947412b2e027bd98da1e8b47e87b80aa0e8a6f0549b5eda4ca3231001225388634604051610cf4929190613584565b60405180910390a350505050565b606060018054610d1190612ed2565b80601f0160208091040260200160405190810160405280929190818152602001828054610d3d90612ed2565b8015610d8a5780601f10610d5f57610100808354040283529160200191610d8a565b820191906000526020600020905b815481529060010190602001808311610d6d57829003601f168201915b5050505050905090565b662386f26fc1000081565b610db1610daa61176b565b8383611c15565b5050565b6060600060075467ffffffffffffffff811115610dd557610dd4612875565b5b604051908082528060200260200182016040528015610e0e57816020015b610dfb612484565b815260200190600190039081610df35790505b5090506000600190505b600754811161102f57600860008281526020019081526020016000206040518060e001604052908160008201548152602001600182018054610e5990612ed2565b80601f0160208091040260200160405190810160405280929190818152602001828054610e8590612ed2565b8015610ed25780601f10610ea757610100808354040283529160200191610ed2565b820191906000526020600020905b815481529060010190602001808311610eb557829003601f168201915b505050505081526020016002820160009054906101000a900473ffffffffffffffffffffffffffffffffffffffff1673ffffffffffffffffffffffffffffffffffffffff1673ffffffffffffffffffffffffffffffffffffffff168152602001600382018054610f4190612ed2565b80601f0160208091040260200160405190810160405280929190818152602001828054610f6d90612ed2565b8015610fba5780601f10610f8f57610100808354040283529160200191610fba565b820191906000526020600020905b815481529060010190602001808311610f9d57829003601f168201915b5050505050815260200160048201548152602001600582015481526020016006820160009054906101000a900460ff1615151515815250508260018361100091906135b4565b81518110611011576110106135e8565b5b60200260200101819052508080611027906132be565b915050610e18565b508091505090565b61104861104261176b565b8361182c565b611087576040517f08c379a000000000000000000000000000000000000000000000000000000000815260040161107e90613099565b60405180910390fd5b61109384848484611d81565b50505050565b60006008600083815260200190815260200160002060020160009054906101000a900473ffffffffffffffffffffffffffffffffffffffff1690506000600860008481526020019081526020016000206005015490506064606e826110fe9190613617565b6111089190613688565b34101561114a576040517f08c379a00000000000000000000000000000000000000000000000000000000081526004016111419061372b565b60405180910390fd5b600115156008600085815260200190815260200160002060060160009054906101000a900460ff161515146111b4576040517f08c379a00000000000000000000000000000000000000000000000000000000081526004016111ab90613797565b60405180910390fd5b336008600085815260200190815260200160002060020160006101000a81548173ffffffffffffffffffffffffffffffffffffffff021916908373ffffffffffffffffffffffffffffffffffffffff16021790555034600860008581526020019081526020016000206005018190555060006008600085815260200190815260200160002060060160006101000a81548160ff02191690831515021790555061125e8233856118c1565b6000600a823461126e91906135b4565b6112789190613688565b90508273ffffffffffffffffffffffffffffffffffffffff166108fc8284346112a191906135b4565b6112ab91906135b4565b9081150290604051600060405180830381858888f193505050501580156112d6573d6000803e3d6000fd5b508273ffffffffffffffffffffffffffffffffffffffff16847f5652046c14b9abc8d38265f76e1f5b8c185cc9be6639ce1fc1986572c031058360405160405180910390a350505050565b606061132c82611720565b6000611336611ddd565b905060008151116113565760405180602001604052806000815250611381565b8061136084611df4565b6040516020016113719291906137f3565b6040516020818303038152906040525b915050919050565b813373ffffffffffffffffffffffffffffffffffffffff166008600083815260200190815260200160002060020160009054906101000a900473ffffffffffffffffffffffffffffffffffffffff1673ffffffffffffffffffffffffffffffffffffffff161461142e576040517f08c379a000000000000000000000000000000000000000000000000000000000815260040161142590613889565b60405180910390fd5b816008600085815260200190815260200160002060060160006101000a81548160ff021916908315150217905550827f34b4aa7df0aafc0d8a801fff725827d33114f67ad541d75f62bd49724bb827ad8360405161148c919061258d565b60405180910390a2505050565b6000600754905090565b6000600560008473ffffffffffffffffffffffffffffffffffffffff1673ffffffffffffffffffffffffffffffffffffffff16815260200190815260200160002060008373ffffffffffffffffffffffffffffffffffffffff1673ffffffffffffffffffffffffffffffffffffffff16815260200190815260200160002060009054906101000a900460ff16905092915050565b600860205280600052604060002060009150905080600001549080600101805461156090612ed2565b80601f016020809104026020016040519081016040528092919081815260200182805461158c90612ed2565b80156115d95780601f106115ae576101008083540402835291602001916115d9565b820191906000526020600020905b8154815290600101906020018083116115bc57829003601f168201915b5050505050908060020160009054906101000a900473ffffffffffffffffffffffffffffffffffffffff169080600301805461161490612ed2565b80601f016020809104026020016040519081016040528092919081815260200182805461164090612ed2565b801561168d5780601f106116625761010080835404028352916020019161168d565b820191906000526020600020905b81548152906001019060200180831161167057829003601f168201915b5050505050908060040154908060050154908060060160009054906101000a900460ff16905087565b60007f01ffc9a7000000000000000000000000000000000000000000000000000000007bffffffffffffffffffffffffffffffffffffffffffffffffffffffff1916827bffffffffffffffffffffffffffffffffffffffffffffffffffffffff1916149050919050565b61172981611ec2565b611768576040517f08c379a000000000000000000000000000000000000000000000000000000000815260040161175f90613171565b60405180910390fd5b50565b600033905090565b816004600083815260200190815260200160002060006101000a81548173ffffffffffffffffffffffffffffffffffffffff021916908373ffffffffffffffffffffffffffffffffffffffff160217905550808273ffffffffffffffffffffffffffffffffffffffff166117e6836109e0565b73ffffffffffffffffffffffffffffffffffffffff167f8c5be1e5ebec7d5bd14f71427d1e84f3dd0314c0f7b2291e5b200ac8c7c3b92560405160405180910390a45050565b600080611838836109e0565b90508073ffffffffffffffffffffffffffffffffffffffff168473ffffffffffffffffffffffffffffffffffffffff16148061187a575061187981856114a3565b5b806118b857508373ffffffffffffffffffffffffffffffffffffffff166118a0846106dc565b73ffffffffffffffffffffffffffffffffffffffff16145b91505092915050565b8273ffffffffffffffffffffffffffffffffffffffff166118e1826109e0565b73ffffffffffffffffffffffffffffffffffffffff1614611937576040517f08c379a000000000000000000000000000000000000000000000000000000000815260040161192e9061391b565b60405180910390fd5b600073ffffffffffffffffffffffffffffffffffffffff168273ffffffffffffffffffffffffffffffffffffffff16036119a6576040517f08c379a000000000000000000000000000000000000000000000000000000000815260040161199d906139ad565b60405180910390fd5b6119b38383836001611f03565b8273ffffffffffffffffffffffffffffffffffffffff166119d3826109e0565b73ffffffffffffffffffffffffffffffffffffffff1614611a29576040517f08c379a0000000000000000000000000000000000000000000000000000000008152600401611a209061391b565b60405180910390fd5b6004600082815260200190815260200160002060006101000a81549073ffffffffffffffffffffffffffffffffffffffff02191690556001600360008573ffffffffffffffffffffffffffffffffffffffff1673ffffffffffffffffffffffffffffffffffffffff168152602001908152602001600020600082825403925050819055506001600360008473ffffffffffffffffffffffffffffffffffffffff1673ffffffffffffffffffffffffffffffffffffffff16815260200190815260200160002060008282540192505081905550816002600083815260200190815260200160002060006101000a81548173ffffffffffffffffffffffffffffffffffffffff021916908373ffffffffffffffffffffffffffffffffffffffff160217905550808273ffffffffffffffffffffffffffffffffffffffff168473ffffffffffffffffffffffffffffffffffffffff167fddf252ad1be2c89b69c2b068fc378daa952ba7f163c4a11628f55a4df523b3ef60405160405180910390a4611bb58383836001611f09565b505050565b60006002600083815260200190815260200160002060009054906101000a900473ffffffffffffffffffffffffffffffffffffffff169050919050565b611c11828260405180602001604052806000815250611f0f565b5050565b8173ffffffffffffffffffffffffffffffffffffffff168373ffffffffffffffffffffffffffffffffffffffff1603611c83576040517f08c379a0000000000000000000000000000000000000000000000000000000008152600401611c7a90613a19565b60405180910390fd5b80600560008573ffffffffffffffffffffffffffffffffffffffff1673ffffffffffffffffffffffffffffffffffffffff16815260200190815260200160002060008473ffffffffffffffffffffffffffffffffffffffff1673ffffffffffffffffffffffffffffffffffffffff16815260200190815260200160002060006101000a81548160ff0219169083151502179055508173ffffffffffffffffffffffffffffffffffffffff168373ffffffffffffffffffffffffffffffffffffffff167f17307eab39ab6107e8899845ad3d59bd9653f200f220920489ca2b5937696c3183604051611d74919061258d565b60405180910390a3505050565b611d8c8484846118c1565b611d9884848484611f6a565b611dd7576040517f08c379a0000000000000000000000000000000000000000000000000000000008152600401611dce90613aab565b60405180910390fd5b50505050565b606060405180602001604052806000815250905090565b606060006001611e03846120f1565b01905060008167ffffffffffffffff811115611e2257611e21612875565b5b6040519080825280601f01601f191660200182016040528015611e545781602001600182028036833780820191505090505b509050600082602001820190505b600115611eb7578080600190039150507f3031323334353637383961626364656600000000000000000000000000000000600a86061a8153600a8581611eab57611eaa613659565b5b04945060008503611e62575b819350505050919050565b60008073ffffffffffffffffffffffffffffffffffffffff16611ee483611bba565b73ffffffffffffffffffffffffffffffffffffffff1614159050919050565b50505050565b50505050565b611f198383612244565b611f266000848484611f6a565b611f65576040517f08c379a0000000000000000000000000000000000000000000000000000000008152600401611f5c90613aab565b60405180910390fd5b505050565b6000611f8b8473ffffffffffffffffffffffffffffffffffffffff16612461565b156120e4578373ffffffffffffffffffffffffffffffffffffffff1663150b7a02611fb461176b565b8786866040518563ffffffff1660e01b8152600401611fd69493929190613b20565b6020604051808303816000875af192505050801561201257506040513d601f19601f8201168201806040525081019061200f9190613b81565b60015b612094573d8060008114612042576040519150601f19603f3d011682016040523d82523d6000602084013e612047565b606091505b50600081510361208c576040517f08c379a000000000000000000000000000000000000000000000000000000000815260040161208390613aab565b60405180910390fd5b805181602001fd5b63150b7a0260e01b7bffffffffffffffffffffffffffffffffffffffffffffffffffffffff1916817bffffffffffffffffffffffffffffffffffffffffffffffffffffffff1916149150506120e9565b600190505b949350505050565b600080600090507a184f03e93ff9f4daa797ed6e38ed64bf6a1f010000000000000000831061214f577a184f03e93ff9f4daa797ed6e38ed64bf6a1f010000000000000000838161214557612144613659565b5b0492506040810190505b6d04ee2d6d415b85acef8100000000831061218c576d04ee2d6d415b85acef8100000000838161218257612181613659565b5b0492506020810190505b662386f26fc1000083106121bb57662386f26fc1000083816121b1576121b0613659565b5b0492506010810190505b6305f5e10083106121e4576305f5e10083816121da576121d9613659565b5b0492506008810190505b61271083106122095761271083816121ff576121fe613659565b5b0492506004810190505b6064831061222c576064838161222257612221613659565b5b0492506002810190505b600a831061223b576001810190505b80915050919050565b600073ffffffffffffffffffffffffffffffffffffffff168273ffffffffffffffffffffffffffffffffffffffff16036122b3576040517f08c379a00000000000000000000000000000000000000000000000000000000081526004016122aa90613bfa565b60405180910390fd5b6122bc81611ec2565b156122fc576040517f08c379a00000000000000000000000000000000000000000000000000000000081526004016122f390613c66565b60405180910390fd5b61230a600083836001611f03565b61231381611ec2565b15612353576040517f08c379a000000000000000000000000000000000000000000000000000000000815260040161234a90613c66565b60405180910390fd5b6001600360008473ffffffffffffffffffffffffffffffffffffffff1673ffffffffffffffffffffffffffffffffffffffff16815260200190815260200160002060008282540192505081905550816002600083815260200190815260200160002060006101000a81548173ffffffffffffffffffffffffffffffffffffffff021916908373ffffffffffffffffffffffffffffffffffffffff160217905550808273ffffffffffffffffffffffffffffffffffffffff16600073ffffffffffffffffffffffffffffffffffffffff167fddf252ad1be2c89b69c2b068fc378daa952ba7f163c4a11628f55a4df523b3ef60405160405180910390a461245d600083836001611f09565b5050565b6000808273ffffffffffffffffffffffffffffffffffffffff163b119050919050565b6040518060e001604052806000815260200160608152602001600073ffffffffffffffffffffffffffffffffffffffff1681526020016060815260200160008152602001600081526020016000151581525090565b6000604051905090565b600080fd5b600080fd5b60007fffffffff0000000000000000000000000000000000000000000000000000000082169050919050565b612522816124ed565b811461252d57600080fd5b50565b60008135905061253f81612519565b92915050565b60006020828403121561255b5761255a6124e3565b5b600061256984828501612530565b91505092915050565b60008115159050919050565b61258781612572565b82525050565b60006020820190506125a2600083018461257e565b92915050565b600081519050919050565b600082825260208201905092915050565b60005b838110156125e25780820151818401526020810190506125c7565b60008484015250505050565b6000601f19601f8301169050919050565b600061260a826125a8565b61261481856125b3565b93506126248185602086016125c4565b61262d816125ee565b840191505092915050565b6000602082019050818103600083015261265281846125ff565b905092915050565b6000819050919050565b61266d8161265a565b811461267857600080fd5b50565b60008135905061268a81612664565b92915050565b6000602082840312156126a6576126a56124e3565b5b60006126b48482850161267b565b91505092915050565b600073ffffffffffffffffffffffffffffffffffffffff82169050919050565b60006126e8826126bd565b9050919050565b6126f8816126dd565b82525050565b600060208201905061271360008301846126ef565b92915050565b612722816126dd565b811461272d57600080fd5b50565b60008135905061273f81612719565b92915050565b6000806040838503121561275c5761275b6124e3565b5b600061276a85828601612730565b925050602061277b8582860161267b565b9150509250929050565b60008060006060848603121561279e5761279d6124e3565b5b60006127ac86828701612730565b93505060206127bd86828701612730565b92505060406127ce8682870161267b565b9150509250925092565b6127e18161265a565b82525050565b60006020820190506127fc60008301846127d8565b92915050565b600061280d826126bd565b9050919050565b61281d81612802565b82525050565b60006020820190506128386000830184612814565b92915050565b600060208284031215612854576128536124e3565b5b600061286284828501612730565b91505092915050565b600080fd5b600080fd5b7f4e487b7100000000000000000000000000000000000000000000000000000000600052604160045260246000fd5b6128ad826125ee565b810181811067ffffffffffffffff821117156128cc576128cb612875565b5b80604052505050565b60006128df6124d9565b90506128eb82826128a4565b919050565b600067ffffffffffffffff82111561290b5761290a612875565b5b612914826125ee565b9050602081019050919050565b82818337600083830152505050565b600061294361293e846128f0565b6128d5565b90508281526020810184848401111561295f5761295e612870565b5b61296a848285612921565b509392505050565b600082601f8301126129875761298661286b565b5b8135612997848260208601612930565b91505092915050565b600080604083850312156129b7576129b66124e3565b5b600083013567ffffffffffffffff8111156129d5576129d46124e8565b5b6129e185828601612972565b925050602083013567ffffffffffffffff811115612a0257612a016124e8565b5b612a0e85828601612972565b9150509250929050565b612a2181612572565b8114612a2c57600080fd5b50565b600081359050612a3e81612a18565b92915050565b60008060408385031215612a5b57612a5a6124e3565b5b6000612a6985828601612730565b9250506020612a7a85828601612a2f565b9150509250929050565b600081519050919050565b600082825260208201905092915050565b6000819050602082019050919050565b612ab98161265a565b82525050565b600082825260208201905092915050565b6000612adb826125a8565b612ae58185612abf565b9350612af58185602086016125c4565b612afe816125ee565b840191505092915050565b612b12816126dd565b82525050565b612b2181612572565b82525050565b600060e083016000830151612b3f6000860182612ab0565b5060208301518482036020860152612b578282612ad0565b9150506040830151612b6c6040860182612b09565b5060608301518482036060860152612b848282612ad0565b9150506080830151612b996080860182612ab0565b5060a0830151612bac60a0860182612ab0565b5060c0830151612bbf60c0860182612b18565b508091505092915050565b6000612bd68383612b27565b905092915050565b6000602082019050919050565b6000612bf682612a84565b612c008185612a8f565b935083602082028501612c1285612aa0565b8060005b85811015612c4e5784840389528151612c2f8582612bca565b9450612c3a83612bde565b925060208a01995050600181019050612c16565b50829750879550505050505092915050565b60006020820190508181036000830152612c7a8184612beb565b905092915050565b600067ffffffffffffffff821115612c9d57612c9c612875565b5b612ca6826125ee565b9050602081019050919050565b6000612cc6612cc184612c82565b6128d5565b905082815260208101848484011115612ce257612ce1612870565b5b612ced848285612921565b509392505050565b600082601f830112612d0a57612d0961286b565b5b8135612d1a848260208601612cb3565b91505092915050565b60008060008060808587031215612d3d57612d3c6124e3565b5b6000612d4b87828801612730565b9450506020612d5c87828801612730565b9350506040612d6d8782880161267b565b925050606085013567ffffffffffffffff811115612d8e57612d8d6124e8565b5b612d9a87828801612cf5565b91505092959194509250565b60008060408385031215612dbd57612dbc6124e3565b5b6000612dcb8582860161267b565b9250506020612ddc85828601612a2f565b9150509250929050565b60008060408385031215612dfd57612dfc6124e3565b5b6000612e0b85828601612730565b9250506020612e1c85828601612730565b9150509250929050565b600060e082019050612e3b600083018a6127d8565b8181036020830152612e4d81896125ff565b9050612e5c60408301886126ef565b8181036060830152612e6e81876125ff565b9050612e7d60808301866127d8565b612e8a60a08301856127d8565b612e9760c083018461257e565b98975050505050505050565b7f4e487b7100000000000000000000000000000000000000000000000000000000600052602260045260246000fd5b60006002820490506001821680612eea57607f821691505b602082108103612efd57612efc612ea3565b5b50919050565b7f4552433732313a20617070726f76616c20746f2063757272656e74206f776e6560008201527f7200000000000000000000000000000000000000000000000000000000000000602082015250565b6000612f5f6021836125b3565b9150612f6a82612f03565b604082019050919050565b60006020820190508181036000830152612f8e81612f52565b9050919050565b7f4552433732313a20617070726f76652063616c6c6572206973206e6f7420746f60008201527f6b656e206f776e6572206f7220617070726f76656420666f7220616c6c000000602082015250565b6000612ff1603d836125b3565b9150612ffc82612f95565b604082019050919050565b6000602082019050818103600083015261302081612fe4565b9050919050565b7f4552433732313a2063616c6c6572206973206e6f7420746f6b656e206f776e6560008201527f72206f7220617070726f76656400000000000000000000000000000000000000602082015250565b6000613083602d836125b3565b915061308e82613027565b604082019050919050565b600060208201905081810360008301526130b281613076565b9050919050565b7f4f6e6c79206f776e65722063616e207769746864726177000000000000000000600082015250565b60006130ef6017836125b3565b91506130fa826130b9565b602082019050919050565b6000602082019050818103600083015261311e816130e2565b9050919050565b7f4552433732313a20696e76616c696420746f6b656e2049440000000000000000600082015250565b600061315b6018836125b3565b915061316682613125565b602082019050919050565b6000602082019050818103600083015261318a8161314e565b9050919050565b7f4552433732313a2061646472657373207a65726f206973206e6f74206120766160008201527f6c6964206f776e65720000000000000000000000000000000000000000000000602082015250565b60006131ed6029836125b3565b91506131f882613191565b604082019050919050565b6000602082019050818103600083015261321c816131e0565b9050919050565b7f4d6178206d696e74696e6720616d6f756e7420697320302e3031000000000000600082015250565b6000613259601a836125b3565b915061326482613223565b602082019050919050565b600060208201905081810360008301526132888161324c565b9050919050565b7f4e487b7100000000000000000000000000000000000000000000000000000000600052601160045260246000fd5b60006132c98261265a565b91507fffffffffffffffffffffffffffffffffffffffffffffffffffffffffffffffff82036132fb576132fa61328f565b5b600182019050919050565b60008190508160005260206000209050919050565b60006020601f8301049050919050565b600082821b905092915050565b6000600883026133687fffffffffffffffffffffffffffffffffffffffffffffffffffffffffffffffff8261332b565b613372868361332b565b95508019841693508086168417925050509392505050565b6000819050919050565b60006133af6133aa6133a58461265a565b61338a565b61265a565b9050919050565b6000819050919050565b6133c983613394565b6133dd6133d5826133b6565b848454613338565b825550505050565b600090565b6133f26133e5565b6133fd8184846133c0565b505050565b5b81811015613421576134166000826133ea565b600181019050613403565b5050565b601f8211156134665761343781613306565b6134408461331b565b8101602085101561344f578190505b61346361345b8561331b565b830182613402565b50505b505050565b600082821c905092915050565b60006134896000198460080261346b565b1980831691505092915050565b60006134a28383613478565b9150826002028217905092915050565b6134bb826125a8565b67ffffffffffffffff8111156134d4576134d3612875565b5b6134de8254612ed2565b6134e9828285613425565b600060209050601f83116001811461351c576000841561350a578287015190505b6135148582613496565b86555061357c565b601f19841661352a86613306565b60005b828110156135525784890151825560018201915060208501945060208101905061352d565b8683101561356f578489015161356b601f891682613478565b8355505b6001600288020188555050505b505050505050565b6000604082019050818103600083015261359e81856125ff565b90506135ad60208301846127d8565b9392505050565b60006135bf8261265a565b91506135ca8361265a565b92508282039050818111156135e2576135e161328f565b5b92915050565b7f4e487b7100000000000000000000000000000000000000000000000000000000600052603260045260246000fd5b60006136228261265a565b915061362d8361265a565b925082820261363b8161265a565b915082820484148315176136525761365161328f565b5b5092915050565b7f4e487b7100000000000000000000000000000000000000000000000000000000600052601260045260246000fd5b60006136938261265a565b915061369e8361265a565b9250826136ae576136ad613659565b5b828204905092915050565b7f45786368616e6765206e6f742070726f66697461626c6520656e6f756768202860008201527f3e31302529000000000000000000000000000000000000000000000000000000602082015250565b60006137156025836125b3565b9150613720826136b9565b604082019050919050565b6000602082019050818103600083015261374481613708565b9050919050565b7f41727469636c65206e6f74206d61726b656420666f722073616c650000000000600082015250565b6000613781601b836125b3565b915061378c8261374b565b602082019050919050565b600060208201905081810360008301526137b081613774565b9050919050565b600081905092915050565b60006137cd826125a8565b6137d781856137b7565b93506137e78185602086016125c4565b80840191505092915050565b60006137ff82856137c2565b915061380b82846137c2565b91508190509392505050565b7f596f7520617265206e6f7420746865206f776e6572206f66207468697320617260008201527f7469636c65000000000000000000000000000000000000000000000000000000602082015250565b60006138736025836125b3565b915061387e82613817565b604082019050919050565b600060208201905081810360008301526138a281613866565b9050919050565b7f4552433732313a207472616e736665722066726f6d20696e636f72726563742060008201527f6f776e6572000000000000000000000000000000000000000000000000000000602082015250565b60006139056025836125b3565b9150613910826138a9565b604082019050919050565b60006020820190508181036000830152613934816138f8565b9050919050565b7f4552433732313a207472616e7366657220746f20746865207a65726f2061646460008201527f7265737300000000000000000000000000000000000000000000000000000000602082015250565b60006139976024836125b3565b91506139a28261393b565b604082019050919050565b600060208201905081810360008301526139c68161398a565b9050919050565b7f4552433732313a20617070726f766520746f2063616c6c657200000000000000600082015250565b6000613a036019836125b3565b9150613a0e826139cd565b602082019050919050565b60006020820190508181036000830152613a32816139f6565b9050919050565b7f4552433732313a207472616e7366657220746f206e6f6e20455243373231526560008201527f63656976657220696d706c656d656e7465720000000000000000000000000000602082015250565b6000613a956032836125b3565b9150613aa082613a39565b604082019050919050565b60006020820190508181036000830152613ac481613a88565b9050919050565b600081519050919050565b600082825260208201905092915050565b6000613af282613acb565b613afc8185613ad6565b9350613b0c8185602086016125c4565b613b15816125ee565b840191505092915050565b6000608082019050613b3560008301876126ef565b613b4260208301866126ef565b613b4f60408301856127d8565b8181036060830152613b618184613ae7565b905095945050505050565b600081519050613b7b81612519565b92915050565b600060208284031215613b9757613b966124e3565b5b6000613ba584828501613b6c565b91505092915050565b7f4552433732313a206d696e7420746f20746865207a65726f2061646472657373600082015250565b6000613be46020836125b3565b9150613bef82613bae565b602082019050919050565b60006020820190508181036000830152613c1381613bd7565b9050919050565b7f4552433732313a20746f6b656e20616c7265616479206d696e74656400000000600082015250565b6000613c50601c836125b3565b9150613c5b82613c1a565b602082019050919050565b60006020820190508181036000830152613c7f81613c43565b905091905056fea26469706673582212203a5f0044fea90d63a577d1a79fe7626c3b9eceee2499820f13102ee3bd6c0d2864736f6c63430008120033",
  "linkReferences": {},
  "deployedLinkReferences": {}
}