{
  "_format": "hh-sol-artifact-1",
  "contractName": "ArticlesContract120",
  "sourceName": "contracts/Articles.sol",
  "abi": [
    {
      "inputs": [],
      "stateMutability": "nonpayable",
      "type": "constructor"
    },
    {
      "anonymous": false,
      "inputs": [
        {
          "indexed": true,
          "internalType": "address",
          "name": "owner",
          "type": "address"
        },
        {
          "indexed": true,
          "internalType": "address",
          "name": "approved",
          "type": "address"
        },
        {
          "indexed": true,
          "internalType": "uint256",
          "name": "tokenId",
          "type": "uint256"
        }
      ],
      "name": "Approval",
      "type": "event"
    },
    {
      "anonymous": false,
      "inputs": [
        {
          "indexed": true,
          "internalType": "address",
          "name": "owner",
          "type": "address"
        },
        {
          "indexed": true,
          "internalType": "address",
          "name": "operator",
          "type": "address"
        },
        {
          "indexed": false,
          "internalType": "bool",
          "name": "approved",
          "type": "bool"
        }
      ],
      "name": "ApprovalForAll",
      "type": "event"
    },
    {
      "anonymous": false,
      "inputs": [
        {
          "indexed": true,
          "internalType": "uint256",
          "name": "articleId",
          "type": "uint256"
        },
        {
          "indexed": false,
          "internalType": "string",
          "name": "content",
          "type": "string"
        },
        {
          "indexed": true,
          "internalType": "address",
          "name": "owner",
          "type": "address"
        },
        {
          "indexed": false,
          "internalType": "uint256",
          "name": "amount",
          "type": "uint256"
        }
      ],
      "name": "ArticleCreated",
      "type": "event"
    },
    {
      "anonymous": false,
      "inputs": [
        {
          "indexed": true,
          "internalType": "uint256",
          "name": "articleId",
          "type": "uint256"
        },
        {
          "indexed": false,
          "internalType": "bool",
          "name": "newExchangeable",
          "type": "bool"
        }
      ],
      "name": "ArticleExchangeable",
      "type": "event"
    },
    {
      "anonymous": false,
      "inputs": [
        {
          "indexed": true,
          "internalType": "uint256",
          "name": "articleId",
          "type": "uint256"
        },
        {
          "indexed": true,
          "internalType": "address",
          "name": "oldOwner",
          "type": "address"
        }
      ],
      "name": "ArticleSold",
      "type": "event"
    },
    {
      "anonymous": false,
      "inputs": [
        {
          "indexed": true,
          "internalType": "address",
          "name": "from",
          "type": "address"
        },
        {
          "indexed": true,
          "internalType": "address",
          "name": "to",
          "type": "address"
        },
        {
          "indexed": true,
          "internalType": "uint256",
          "name": "tokenId",
          "type": "uint256"
        }
      ],
      "name": "Transfer",
      "type": "event"
    },
    {
      "inputs": [
        {
          "internalType": "address",
          "name": "to",
          "type": "address"
        },
        {
          "internalType": "uint256",
          "name": "tokenId",
          "type": "uint256"
        }
      ],
      "name": "approve",
      "outputs": [],
      "stateMutability": "nonpayable",
      "type": "function"
    },
    {
      "inputs": [],
      "name": "articleCount",
      "outputs": [
        {
          "internalType": "uint256",
          "name": "",
          "type": "uint256"
        }
      ],
      "stateMutability": "view",
      "type": "function"
    },
    {
      "inputs": [
        {
          "internalType": "uint256",
          "name": "",
          "type": "uint256"
        }
      ],
      "name": "articles",
      "outputs": [
        {
          "internalType": "uint256",
          "name": "id",
          "type": "uint256"
        },
        {
          "internalType": "string",
          "name": "content",
          "type": "string"
        },
        {
          "internalType": "address",
          "name": "owner",
          "type": "address"
        },
        {
          "internalType": "string",
          "name": "tags",
          "type": "string"
        },
        {
          "internalType": "uint256",
          "name": "created",
          "type": "uint256"
        },
        {
          "internalType": "uint256",
          "name": "amount",
          "type": "uint256"
        },
        {
          "internalType": "bool",
          "name": "exchangeable",
          "type": "bool"
        }
      ],
      "stateMutability": "view",
      "type": "function"
    },
    {
      "inputs": [
        {
          "internalType": "address",
          "name": "owner",
          "type": "address"
        }
      ],
      "name": "balanceOf",
      "outputs": [
        {
          "internalType": "uint256",
          "name": "",
          "type": "uint256"
        }
      ],
      "stateMutability": "view",
      "type": "function"
    },
    {
      "inputs": [
        {
          "internalType": "string",
          "name": "_content",
          "type": "string"
        },
        {
          "internalType": "string",
          "name": "_tags",
          "type": "string"
        }
      ],
      "name": "createArticle",
      "outputs": [],
      "stateMutability": "payable",
      "type": "function"
    },
    {
      "inputs": [
        {
          "internalType": "uint256",
          "name": "_articleId",
          "type": "uint256"
        }
      ],
      "name": "exchangeArticle",
      "outputs": [],
      "stateMutability": "payable",
      "type": "function"
    },
    {
      "inputs": [
        {
          "internalType": "uint256",
          "name": "_articleId",
          "type": "uint256"
        },
        {
          "internalType": "bool",
          "name": "_exchangeable",
          "type": "bool"
        }
      ],
      "name": "exchangeableArticle",
      "outputs": [],
      "stateMutability": "nonpayable",
      "type": "function"
    },
    {
      "inputs": [],
      "name": "getAllArticles",
      "outputs": [
        {
          "components": [
            {
              "internalType": "uint256",
              "name": "id",
              "type": "uint256"
            },
            {
              "internalType": "string",
              "name": "content",
              "type": "string"
            },
            {
              "internalType": "address",
              "name": "owner",
              "type": "address"
            },
            {
              "internalType": "string",
              "name": "tags",
              "type": "string"
            },
            {
              "internalType": "uint256",
              "name": "created",
              "type": "uint256"
            },
            {
              "internalType": "uint256",
              "name": "amount",
              "type": "uint256"
            },
            {
              "internalType": "bool",
              "name": "exchangeable",
              "type": "bool"
            }
          ],
          "internalType": "struct ArticlesContract120.Article[]",
          "name": "",
          "type": "tuple[]"
        }
      ],
      "stateMutability": "view",
      "type": "function"
    },
    {
      "inputs": [
        {
          "internalType": "uint256",
          "name": "tokenId",
          "type": "uint256"
        }
      ],
      "name": "getApproved",
      "outputs": [
        {
          "internalType": "address",
          "name": "",
          "type": "address"
        }
      ],
      "stateMutability": "view",
      "type": "function"
    },
    {
      "inputs": [],
      "name": "getArticleCount",
      "outputs": [
        {
          "internalType": "uint256",
          "name": "",
          "type": "uint256"
        }
      ],
      "stateMutability": "view",
      "type": "function"
    },
    {
      "inputs": [
        {
          "internalType": "address",
          "name": "owner",
          "type": "address"
        },
        {
          "internalType": "address",
          "name": "operator",
          "type": "address"
        }
      ],
      "name": "isApprovedForAll",
      "outputs": [
        {
          "internalType": "bool",
          "name": "",
          "type": "bool"
        }
      ],
      "stateMutability": "view",
      "type": "function"
    },
    {
      "inputs": [],
      "name": "manager",
      "outputs": [
        {
          "internalType": "address payable",
          "name": "",
          "type": "address"
        }
      ],
      "stateMutability": "view",
      "type": "function"
    },
    {
      "inputs": [],
      "name": "name",
      "outputs": [
        {
          "internalType": "string",
          "name": "",
          "type": "string"
        }
      ],
      "stateMutability": "view",
      "type": "function"
    },
    {
      "inputs": [
        {
          "internalType": "uint256",
          "name": "tokenId",
          "type": "uint256"
        }
      ],
      "name": "ownerOf",
      "outputs": [
        {
          "internalType": "address",
          "name": "",
          "type": "address"
        }
      ],
      "stateMutability": "view",
      "type": "function"
    },
    {
      "inputs": [],
      "name": "price",
      "outputs": [
        {
          "internalType": "uint256",
          "name": "",
          "type": "uint256"
        }
      ],
      "stateMutability": "view",
      "type": "function"
    },
    {
      "inputs": [
        {
          "internalType": "address",
          "name": "from",
          "type": "address"
        },
        {
          "internalType": "address",
          "name": "to",
          "type": "address"
        },
        {
          "internalType": "uint256",
          "name": "tokenId",
          "type": "uint256"
        }
      ],
      "name": "safeTransferFrom",
      "outputs": [],
      "stateMutability": "nonpayable",
      "type": "function"
    },
    {
      "inputs": [
        {
          "internalType": "address",
          "name": "from",
          "type": "address"
        },
        {
          "internalType": "address",
          "name": "to",
          "type": "address"
        },
        {
          "internalType": "uint256",
          "name": "tokenId",
          "type": "uint256"
        },
        {
          "internalType": "bytes",
          "name": "data",
          "type": "bytes"
        }
      ],
      "name": "safeTransferFrom",
      "outputs": [],
      "stateMutability": "nonpayable",
      "type": "function"
    },
    {
      "inputs": [
        {
          "internalType": "address",
          "name": "operator",
          "type": "address"
        },
        {
          "internalType": "bool",
          "name": "approved",
          "type": "bool"
        }
      ],
      "name": "setApprovalForAll",
      "outputs": [],
      "stateMutability": "nonpayable",
      "type": "function"
    },
    {
      "inputs": [
        {
          "internalType": "bytes4",
          "name": "interfaceId",
          "type": "bytes4"
        }
      ],
      "name": "supportsInterface",
      "outputs": [
        {
          "internalType": "bool",
          "name": "",
          "type": "bool"
        }
      ],
      "stateMutability": "view",
      "type": "function"
    },
    {
      "inputs": [],
      "name": "symbol",
      "outputs": [
        {
          "internalType": "string",
          "name": "",
          "type": "string"
        }
      ],
      "stateMutability": "view",
      "type": "function"
    },
    {
      "inputs": [
        {
          "internalType": "uint256",
          "name": "tokenId",
          "type": "uint256"
        }
      ],
      "name": "tokenURI",
      "outputs": [
        {
          "internalType": "string",
          "name": "",
          "type": "string"
        }
      ],
      "stateMutability": "view",
      "type": "function"
    },
    {
      "inputs": [
        {
          "internalType": "address",
          "name": "from",
          "type": "address"
        },
        {
          "internalType": "address",
          "name": "to",
          "type": "address"
        },
        {
          "internalType": "uint256",
          "name": "tokenId",
          "type": "uint256"
        }
      ],
      "name": "transferFrom",
      "outputs": [],
      "stateMutability": "nonpayable",
      "type": "function"
    },
    {
      "inputs": [],
      "name": "withdraw",
      "outputs": [],
      "stateMutability": "nonpayable",
      "type": "function"
    }
  ],
  "bytecode": "0x60806040523480156200001157600080fd5b506040518060400160405280600881526020017f41727469636c65730000000000000000000000000000000000000000000000008152506040518060400160405280600381526020017f415254000000000000000000000000000000000000000000000000000000000081525081600090816200008f919062000365565b508060019081620000a1919062000365565b50505033600660006101000a81548173ffffffffffffffffffffffffffffffffffffffff021916908373ffffffffffffffffffffffffffffffffffffffff1602179055506200044c565b600081519050919050565b7f4e487b7100000000000000000000000000000000000000000000000000000000600052604160045260246000fd5b7f4e487b7100000000000000000000000000000000000000000000000000000000600052602260045260246000fd5b600060028204905060018216806200016d57607f821691505b60208210810362000183576200018262000125565b5b50919050565b60008190508160005260206000209050919050565b60006020601f8301049050919050565b600082821b905092915050565b600060088302620001ed7fffffffffffffffffffffffffffffffffffffffffffffffffffffffffffffffff82620001ae565b620001f98683620001ae565b95508019841693508086168417925050509392505050565b6000819050919050565b6000819050919050565b600062000246620002406200023a8462000211565b6200021b565b62000211565b9050919050565b6000819050919050565b620002628362000225565b6200027a62000271826200024d565b848454620001bb565b825550505050565b600090565b6200029162000282565b6200029e81848462000257565b505050565b5b81811015620002c657620002ba60008262000287565b600181019050620002a4565b5050565b601f8211156200031557620002df8162000189565b620002ea846200019e565b81016020851015620002fa578190505b6200031262000309856200019e565b830182620002a3565b50505b505050565b600082821c905092915050565b60006200033a600019846008026200031a565b1980831691505092915050565b600062000355838362000327565b9150826002028217905092915050565b6200037082620000eb565b67ffffffffffffffff8111156200038c576200038b620000f6565b5b62000398825462000154565b620003a5828285620002ca565b600060209050601f831160018114620003dd5760008415620003c8578287015190505b620003d4858262000347565b86555062000444565b601f198416620003ed8662000189565b60005b828110156200041757848901518255600182019150602085019450602081019050620003f0565b8683101562000437578489015162000433601f89168262000327565b8355505b6001600288020188555050505b505050505050565b613d5f806200045c6000396000f3fe6080604052600436106101405760003560e01c80638cfa2272116100b6578063b97cd6b01161006f578063b97cd6b01461043b578063c87b56dd14610457578063d453385914610494578063e899d5ff146104bd578063e985e9c5146104e8578063edcfafe61461052557610140565b80638cfa22721461034c57806395d89b4114610368578063a035b1fe14610393578063a22cb465146103be578063b44d310b146103e7578063b88d4fde1461041257610140565b80633ccfd60b116101085780633ccfd60b1461023c578063414e28b01461025357806342842e0e1461027e578063481c6a75146102a75780636352211e146102d257806370a082311461030f57610140565b806301ffc9a71461014557806306fdde0314610182578063081812fc146101ad578063095ea7b3146101ea57806323b872dd14610213575b600080fd5b34801561015157600080fd5b5061016c600480360381019061016791906125e8565b610568565b6040516101799190612630565b60405180910390f35b34801561018e57600080fd5b5061019761064a565b6040516101a491906126db565b60405180910390f35b3480156101b957600080fd5b506101d460048036038101906101cf9190612733565b6106dc565b6040516101e191906127a1565b60405180910390f35b3480156101f657600080fd5b50610211600480360381019061020c91906127e8565b610722565b005b34801561021f57600080fd5b5061023a60048036038101906102359190612828565b610839565b005b34801561024857600080fd5b50610251610899565b005b34801561025f57600080fd5b50610268610994565b604051610275919061288a565b60405180910390f35b34801561028a57600080fd5b506102a560048036038101906102a09190612828565b61099a565b005b3480156102b357600080fd5b506102bc6109ba565b6040516102c991906128c6565b60405180910390f35b3480156102de57600080fd5b506102f960048036038101906102f49190612733565b6109e0565b60405161030691906127a1565b60405180910390f35b34801561031b57600080fd5b50610336600480360381019061033191906128e1565b610a66565b604051610343919061288a565b60405180910390f35b61036660048036038101906103619190612a43565b610b1d565b005b34801561037457600080fd5b5061037d610d6b565b60405161038a91906126db565b60405180910390f35b34801561039f57600080fd5b506103a8610dfd565b6040516103b5919061288a565b60405180910390f35b3480156103ca57600080fd5b506103e560048036038101906103e09190612ae7565b610e08565b005b3480156103f357600080fd5b506103fc610e1e565b6040516104099190612d03565b60405180910390f35b34801561041e57600080fd5b5061043960048036038101906104349190612dc6565b6110a0565b005b61045560048036038101906104509190612733565b611102565b005b34801561046357600080fd5b5061047e60048036038101906104799190612733565b6113c4565b60405161048b91906126db565b60405180910390f35b3480156104a057600080fd5b506104bb60048036038101906104b69190612e49565b61142c565b005b3480156104c957600080fd5b506104d261153c565b6040516104df919061288a565b60405180910390f35b3480156104f457600080fd5b5061050f600480360381019061050a9190612e89565b611546565b60405161051c9190612630565b60405180910390f35b34801561053157600080fd5b5061054c60048036038101906105479190612733565b6115da565b60405161055f9796959493929190612ec9565b60405180910390f35b60007f80ac58cd000000000000000000000000000000000000000000000000000000007bffffffffffffffffffffffffffffffffffffffffffffffffffffffff1916827bffffffffffffffffffffffffffffffffffffffffffffffffffffffff1916148061063357507f5b5e139f000000000000000000000000000000000000000000000000000000007bffffffffffffffffffffffffffffffffffffffffffffffffffffffff1916827bffffffffffffffffffffffffffffffffffffffffffffffffffffffff1916145b80610643575061064282611759565b5b9050919050565b60606000805461065990612f75565b80601f016020809104026020016040519081016040528092919081815260200182805461068590612f75565b80156106d25780601f106106a7576101008083540402835291602001916106d2565b820191906000526020600020905b8154815290600101906020018083116106b557829003601f168201915b5050505050905090565b60006106e7826117c3565b6004600083815260200190815260200160002060009054906101000a900473ffffffffffffffffffffffffffffffffffffffff169050919050565b600061072d826109e0565b90508073ffffffffffffffffffffffffffffffffffffffff168373ffffffffffffffffffffffffffffffffffffffff160361079d576040517f08c379a000000000000000000000000000000000000000000000000000000000815260040161079490613018565b60405180910390fd5b8073ffffffffffffffffffffffffffffffffffffffff166107bc61180e565b73ffffffffffffffffffffffffffffffffffffffff1614806107eb57506107ea816107e561180e565b611546565b5b61082a576040517f08c379a0000000000000000000000000000000000000000000000000000000008152600401610821906130aa565b60405180910390fd5b6108348383611816565b505050565b61084a61084461180e565b826118cf565b610889576040517f08c379a00000000000000000000000000000000000000000000000000000000081526004016108809061313c565b60405180910390fd5b610894838383611964565b505050565b600660009054906101000a900473ffffffffffffffffffffffffffffffffffffffff1673ffffffffffffffffffffffffffffffffffffffff163373ffffffffffffffffffffffffffffffffffffffff1614610929576040517f08c379a0000000000000000000000000000000000000000000000000000000008152600401610920906131a8565b60405180910390fd5b600660009054906101000a900473ffffffffffffffffffffffffffffffffffffffff1673ffffffffffffffffffffffffffffffffffffffff166108fc479081150290604051600060405180830381858888f19350505050158015610991573d6000803e3d6000fd5b50565b60075481565b6109b5838383604051806020016040528060008152506110a0565b505050565b600660009054906101000a900473ffffffffffffffffffffffffffffffffffffffff1681565b6000806109ec83611c5d565b9050600073ffffffffffffffffffffffffffffffffffffffff168173ffffffffffffffffffffffffffffffffffffffff1603610a5d576040517f08c379a0000000000000000000000000000000000000000000000000000000008152600401610a5490613214565b60405180910390fd5b80915050919050565b60008073ffffffffffffffffffffffffffffffffffffffff168273ffffffffffffffffffffffffffffffffffffffff1603610ad6576040517f08c379a0000000000000000000000000000000000000000000000000000000008152600401610acd906132a6565b60405180910390fd5b600360008373ffffffffffffffffffffffffffffffffffffffff1673ffffffffffffffffffffffffffffffffffffffff168152602001908152602001600020549050919050565b66038d7ea4c680003410610b66576040517f08c379a0000000000000000000000000000000000000000000000000000000008152600401610b5d90613312565b60405180910390fd5b60076000815480929190610b7990613361565b91905055506000600754905060006040518060e001604052808381526020018581526020013373ffffffffffffffffffffffffffffffffffffffff16815260200184815260200142815260200134815260200160001515815250905080600860006007548152602001908152602001600020600082015181600001556020820151816001019081610c0a9190613555565b5060408201518160020160006101000a81548173ffffffffffffffffffffffffffffffffffffffff021916908373ffffffffffffffffffffffffffffffffffffffff1602179055506060820151816003019081610c679190613555565b506080820151816004015560a0820151816005015560c08201518160060160006101000a81548160ff021916908315150217905550905050600660009054906101000a900473ffffffffffffffffffffffffffffffffffffffff1673ffffffffffffffffffffffffffffffffffffffff166108fc349081150290604051600060405180830381858888f19350505050158015610d07573d6000803e3d6000fd5b50610d123383611c9a565b3373ffffffffffffffffffffffffffffffffffffffff166007547f7d947412b2e027bd98da1e8b47e87b80aa0e8a6f0549b5eda4ca3231001225388634604051610d5d929190613627565b60405180910390a350505050565b606060018054610d7a90612f75565b80601f0160208091040260200160405190810160405280929190818152602001828054610da690612f75565b8015610df35780601f10610dc857610100808354040283529160200191610df3565b820191906000526020600020905b815481529060010190602001808311610dd657829003601f168201915b5050505050905090565b66038d7ea4c6800081565b610e1a610e1361180e565b8383611cb8565b5050565b6060600060075467ffffffffffffffff811115610e3e57610e3d612918565b5b604051908082528060200260200182016040528015610e7757816020015b610e64612527565b815260200190600190039081610e5c5790505b5090506000600190505b600754811161109857600860008281526020019081526020016000206040518060e001604052908160008201548152602001600182018054610ec290612f75565b80601f0160208091040260200160405190810160405280929190818152602001828054610eee90612f75565b8015610f3b5780601f10610f1057610100808354040283529160200191610f3b565b820191906000526020600020905b815481529060010190602001808311610f1e57829003601f168201915b505050505081526020016002820160009054906101000a900473ffffffffffffffffffffffffffffffffffffffff1673ffffffffffffffffffffffffffffffffffffffff1673ffffffffffffffffffffffffffffffffffffffff168152602001600382018054610faa90612f75565b80601f0160208091040260200160405190810160405280929190818152602001828054610fd690612f75565b80156110235780601f10610ff857610100808354040283529160200191611023565b820191906000526020600020905b81548152906001019060200180831161100657829003601f168201915b5050505050815260200160048201548152602001600582015481526020016006820160009054906101000a900460ff161515151581525050826001836110699190613657565b8151811061107a5761107961368b565b5b6020026020010181905250808061109090613361565b915050610e81565b508091505090565b6110b16110ab61180e565b836118cf565b6110f0576040517f08c379a00000000000000000000000000000000000000000000000000000000081526004016110e79061313c565b60405180910390fd5b6110fc84848484611e24565b50505050565b60006008600083815260200190815260200160002060020160009054906101000a900473ffffffffffffffffffffffffffffffffffffffff1690506000600860008481526020019081526020016000206005015490506064606e8261116791906136ba565b611171919061372b565b3410156111b3576040517f08c379a00000000000000000000000000000000000000000000000000000000081526004016111aa906137ce565b60405180910390fd5b600115156008600085815260200190815260200160002060060160009054906101000a900460ff1615151461121d576040517f08c379a00000000000000000000000000000000000000000000000000000000081526004016112149061383a565b60405180910390fd5b336008600085815260200190815260200160002060020160006101000a81548173ffffffffffffffffffffffffffffffffffffffff021916908373ffffffffffffffffffffffffffffffffffffffff160217905550346008600085815260200190815260200160002060050181905550611298823385611964565b6000600a82346112a89190613657565b6112b2919061372b565b9050600660009054906101000a900473ffffffffffffffffffffffffffffffffffffffff1673ffffffffffffffffffffffffffffffffffffffff166108fc829081150290604051600060405180830381858888f1935050505015801561131c573d6000803e3d6000fd5b508273ffffffffffffffffffffffffffffffffffffffff166108fc8284346113449190613657565b61134e9190613657565b9081150290604051600060405180830381858888f19350505050158015611379573d6000803e3d6000fd5b508273ffffffffffffffffffffffffffffffffffffffff16847f5652046c14b9abc8d38265f76e1f5b8c185cc9be6639ce1fc1986572c031058360405160405180910390a350505050565b60606113cf826117c3565b60006113d9611e80565b905060008151116113f95760405180602001604052806000815250611424565b8061140384611e97565b604051602001611414929190613896565b6040516020818303038152906040525b915050919050565b813373ffffffffffffffffffffffffffffffffffffffff166008600083815260200190815260200160002060020160009054906101000a900473ffffffffffffffffffffffffffffffffffffffff1673ffffffffffffffffffffffffffffffffffffffff16146114d1576040517f08c379a00000000000000000000000000000000000000000000000000000000081526004016114c89061392c565b60405180910390fd5b816008600085815260200190815260200160002060060160006101000a81548160ff021916908315150217905550827f34b4aa7df0aafc0d8a801fff725827d33114f67ad541d75f62bd49724bb827ad8360405161152f9190612630565b60405180910390a2505050565b6000600754905090565b6000600560008473ffffffffffffffffffffffffffffffffffffffff1673ffffffffffffffffffffffffffffffffffffffff16815260200190815260200160002060008373ffffffffffffffffffffffffffffffffffffffff1673ffffffffffffffffffffffffffffffffffffffff16815260200190815260200160002060009054906101000a900460ff16905092915050565b600860205280600052604060002060009150905080600001549080600101805461160390612f75565b80601f016020809104026020016040519081016040528092919081815260200182805461162f90612f75565b801561167c5780601f106116515761010080835404028352916020019161167c565b820191906000526020600020905b81548152906001019060200180831161165f57829003601f168201915b5050505050908060020160009054906101000a900473ffffffffffffffffffffffffffffffffffffffff16908060030180546116b790612f75565b80601f01602080910402602001604051908101604052809291908181526020018280546116e390612f75565b80156117305780601f1061170557610100808354040283529160200191611730565b820191906000526020600020905b81548152906001019060200180831161171357829003601f168201915b5050505050908060040154908060050154908060060160009054906101000a900460ff16905087565b60007f01ffc9a7000000000000000000000000000000000000000000000000000000007bffffffffffffffffffffffffffffffffffffffffffffffffffffffff1916827bffffffffffffffffffffffffffffffffffffffffffffffffffffffff1916149050919050565b6117cc81611f65565b61180b576040517f08c379a000000000000000000000000000000000000000000000000000000000815260040161180290613214565b60405180910390fd5b50565b600033905090565b816004600083815260200190815260200160002060006101000a81548173ffffffffffffffffffffffffffffffffffffffff021916908373ffffffffffffffffffffffffffffffffffffffff160217905550808273ffffffffffffffffffffffffffffffffffffffff16611889836109e0565b73ffffffffffffffffffffffffffffffffffffffff167f8c5be1e5ebec7d5bd14f71427d1e84f3dd0314c0f7b2291e5b200ac8c7c3b92560405160405180910390a45050565b6000806118db836109e0565b90508073ffffffffffffffffffffffffffffffffffffffff168473ffffffffffffffffffffffffffffffffffffffff16148061191d575061191c8185611546565b5b8061195b57508373ffffffffffffffffffffffffffffffffffffffff16611943846106dc565b73ffffffffffffffffffffffffffffffffffffffff16145b91505092915050565b8273ffffffffffffffffffffffffffffffffffffffff16611984826109e0565b73ffffffffffffffffffffffffffffffffffffffff16146119da576040517f08c379a00000000000000000000000000000000000000000000000000000000081526004016119d1906139be565b60405180910390fd5b600073ffffffffffffffffffffffffffffffffffffffff168273ffffffffffffffffffffffffffffffffffffffff1603611a49576040517f08c379a0000000000000000000000000000000000000000000000000000000008152600401611a4090613a50565b60405180910390fd5b611a568383836001611fa6565b8273ffffffffffffffffffffffffffffffffffffffff16611a76826109e0565b73ffffffffffffffffffffffffffffffffffffffff1614611acc576040517f08c379a0000000000000000000000000000000000000000000000000000000008152600401611ac3906139be565b60405180910390fd5b6004600082815260200190815260200160002060006101000a81549073ffffffffffffffffffffffffffffffffffffffff02191690556001600360008573ffffffffffffffffffffffffffffffffffffffff1673ffffffffffffffffffffffffffffffffffffffff168152602001908152602001600020600082825403925050819055506001600360008473ffffffffffffffffffffffffffffffffffffffff1673ffffffffffffffffffffffffffffffffffffffff16815260200190815260200160002060008282540192505081905550816002600083815260200190815260200160002060006101000a81548173ffffffffffffffffffffffffffffffffffffffff021916908373ffffffffffffffffffffffffffffffffffffffff160217905550808273ffffffffffffffffffffffffffffffffffffffff168473ffffffffffffffffffffffffffffffffffffffff167fddf252ad1be2c89b69c2b068fc378daa952ba7f163c4a11628f55a4df523b3ef60405160405180910390a4611c588383836001611fac565b505050565b60006002600083815260200190815260200160002060009054906101000a900473ffffffffffffffffffffffffffffffffffffffff169050919050565b611cb4828260405180602001604052806000815250611fb2565b5050565b8173ffffffffffffffffffffffffffffffffffffffff168373ffffffffffffffffffffffffffffffffffffffff1603611d26576040517f08c379a0000000000000000000000000000000000000000000000000000000008152600401611d1d90613abc565b60405180910390fd5b80600560008573ffffffffffffffffffffffffffffffffffffffff1673ffffffffffffffffffffffffffffffffffffffff16815260200190815260200160002060008473ffffffffffffffffffffffffffffffffffffffff1673ffffffffffffffffffffffffffffffffffffffff16815260200190815260200160002060006101000a81548160ff0219169083151502179055508173ffffffffffffffffffffffffffffffffffffffff168373ffffffffffffffffffffffffffffffffffffffff167f17307eab39ab6107e8899845ad3d59bd9653f200f220920489ca2b5937696c3183604051611e179190612630565b60405180910390a3505050565b611e2f848484611964565b611e3b8484848461200d565b611e7a576040517f08c379a0000000000000000000000000000000000000000000000000000000008152600401611e7190613b4e565b60405180910390fd5b50505050565b606060405180602001604052806000815250905090565b606060006001611ea684612194565b01905060008167ffffffffffffffff811115611ec557611ec4612918565b5b6040519080825280601f01601f191660200182016040528015611ef75781602001600182028036833780820191505090505b509050600082602001820190505b600115611f5a578080600190039150507f3031323334353637383961626364656600000000000000000000000000000000600a86061a8153600a8581611f4e57611f4d6136fc565b5b04945060008503611f05575b819350505050919050565b60008073ffffffffffffffffffffffffffffffffffffffff16611f8783611c5d565b73ffffffffffffffffffffffffffffffffffffffff1614159050919050565b50505050565b50505050565b611fbc83836122e7565b611fc9600084848461200d565b612008576040517f08c379a0000000000000000000000000000000000000000000000000000000008152600401611fff90613b4e565b60405180910390fd5b505050565b600061202e8473ffffffffffffffffffffffffffffffffffffffff16612504565b15612187578373ffffffffffffffffffffffffffffffffffffffff1663150b7a0261205761180e565b8786866040518563ffffffff1660e01b81526004016120799493929190613bc3565b6020604051808303816000875af19250505080156120b557506040513d601f19601f820116820180604052508101906120b29190613c24565b60015b612137573d80600081146120e5576040519150601f19603f3d011682016040523d82523d6000602084013e6120ea565b606091505b50600081510361212f576040517f08c379a000000000000000000000000000000000000000000000000000000000815260040161212690613b4e565b60405180910390fd5b805181602001fd5b63150b7a0260e01b7bffffffffffffffffffffffffffffffffffffffffffffffffffffffff1916817bffffffffffffffffffffffffffffffffffffffffffffffffffffffff19161491505061218c565b600190505b949350505050565b600080600090507a184f03e93ff9f4daa797ed6e38ed64bf6a1f01000000000000000083106121f2577a184f03e93ff9f4daa797ed6e38ed64bf6a1f01000000000000000083816121e8576121e76136fc565b5b0492506040810190505b6d04ee2d6d415b85acef8100000000831061222f576d04ee2d6d415b85acef81000000008381612225576122246136fc565b5b0492506020810190505b662386f26fc10000831061225e57662386f26fc100008381612254576122536136fc565b5b0492506010810190505b6305f5e1008310612287576305f5e100838161227d5761227c6136fc565b5b0492506008810190505b61271083106122ac5761271083816122a2576122a16136fc565b5b0492506004810190505b606483106122cf57606483816122c5576122c46136fc565b5b0492506002810190505b600a83106122de576001810190505b80915050919050565b600073ffffffffffffffffffffffffffffffffffffffff168273ffffffffffffffffffffffffffffffffffffffff1603612356576040517f08c379a000000000000000000000000000000000000000000000000000000000815260040161234d90613c9d565b60405180910390fd5b61235f81611f65565b1561239f576040517f08c379a000000000000000000000000000000000000000000000000000000000815260040161239690613d09565b60405180910390fd5b6123ad600083836001611fa6565b6123b681611f65565b156123f6576040517f08c379a00000000000000000000000000000000000000000000000000000000081526004016123ed90613d09565b60405180910390fd5b6001600360008473ffffffffffffffffffffffffffffffffffffffff1673ffffffffffffffffffffffffffffffffffffffff16815260200190815260200160002060008282540192505081905550816002600083815260200190815260200160002060006101000a81548173ffffffffffffffffffffffffffffffffffffffff021916908373ffffffffffffffffffffffffffffffffffffffff160217905550808273ffffffffffffffffffffffffffffffffffffffff16600073ffffffffffffffffffffffffffffffffffffffff167fddf252ad1be2c89b69c2b068fc378daa952ba7f163c4a11628f55a4df523b3ef60405160405180910390a4612500600083836001611fac565b5050565b6000808273ffffffffffffffffffffffffffffffffffffffff163b119050919050565b6040518060e001604052806000815260200160608152602001600073ffffffffffffffffffffffffffffffffffffffff1681526020016060815260200160008152602001600081526020016000151581525090565b6000604051905090565b600080fd5b600080fd5b60007fffffffff0000000000000000000000000000000000000000000000000000000082169050919050565b6125c581612590565b81146125d057600080fd5b50565b6000813590506125e2816125bc565b92915050565b6000602082840312156125fe576125fd612586565b5b600061260c848285016125d3565b91505092915050565b60008115159050919050565b61262a81612615565b82525050565b60006020820190506126456000830184612621565b92915050565b600081519050919050565b600082825260208201905092915050565b60005b8381101561268557808201518184015260208101905061266a565b60008484015250505050565b6000601f19601f8301169050919050565b60006126ad8261264b565b6126b78185612656565b93506126c7818560208601612667565b6126d081612691565b840191505092915050565b600060208201905081810360008301526126f581846126a2565b905092915050565b6000819050919050565b612710816126fd565b811461271b57600080fd5b50565b60008135905061272d81612707565b92915050565b60006020828403121561274957612748612586565b5b60006127578482850161271e565b91505092915050565b600073ffffffffffffffffffffffffffffffffffffffff82169050919050565b600061278b82612760565b9050919050565b61279b81612780565b82525050565b60006020820190506127b66000830184612792565b92915050565b6127c581612780565b81146127d057600080fd5b50565b6000813590506127e2816127bc565b92915050565b600080604083850312156127ff576127fe612586565b5b600061280d858286016127d3565b925050602061281e8582860161271e565b9150509250929050565b60008060006060848603121561284157612840612586565b5b600061284f868287016127d3565b9350506020612860868287016127d3565b92505060406128718682870161271e565b9150509250925092565b612884816126fd565b82525050565b600060208201905061289f600083018461287b565b92915050565b60006128b082612760565b9050919050565b6128c0816128a5565b82525050565b60006020820190506128db60008301846128b7565b92915050565b6000602082840312156128f7576128f6612586565b5b6000612905848285016127d3565b91505092915050565b600080fd5b600080fd5b7f4e487b7100000000000000000000000000000000000000000000000000000000600052604160045260246000fd5b61295082612691565b810181811067ffffffffffffffff8211171561296f5761296e612918565b5b80604052505050565b600061298261257c565b905061298e8282612947565b919050565b600067ffffffffffffffff8211156129ae576129ad612918565b5b6129b782612691565b9050602081019050919050565b82818337600083830152505050565b60006129e66129e184612993565b612978565b905082815260208101848484011115612a0257612a01612913565b5b612a0d8482856129c4565b509392505050565b600082601f830112612a2a57612a2961290e565b5b8135612a3a8482602086016129d3565b91505092915050565b60008060408385031215612a5a57612a59612586565b5b600083013567ffffffffffffffff811115612a7857612a7761258b565b5b612a8485828601612a15565b925050602083013567ffffffffffffffff811115612aa557612aa461258b565b5b612ab185828601612a15565b9150509250929050565b612ac481612615565b8114612acf57600080fd5b50565b600081359050612ae181612abb565b92915050565b60008060408385031215612afe57612afd612586565b5b6000612b0c858286016127d3565b9250506020612b1d85828601612ad2565b9150509250929050565b600081519050919050565b600082825260208201905092915050565b6000819050602082019050919050565b612b5c816126fd565b82525050565b600082825260208201905092915050565b6000612b7e8261264b565b612b888185612b62565b9350612b98818560208601612667565b612ba181612691565b840191505092915050565b612bb581612780565b82525050565b612bc481612615565b82525050565b600060e083016000830151612be26000860182612b53565b5060208301518482036020860152612bfa8282612b73565b9150506040830151612c0f6040860182612bac565b5060608301518482036060860152612c278282612b73565b9150506080830151612c3c6080860182612b53565b5060a0830151612c4f60a0860182612b53565b5060c0830151612c6260c0860182612bbb565b508091505092915050565b6000612c798383612bca565b905092915050565b6000602082019050919050565b6000612c9982612b27565b612ca38185612b32565b935083602082028501612cb585612b43565b8060005b85811015612cf15784840389528151612cd28582612c6d565b9450612cdd83612c81565b925060208a01995050600181019050612cb9565b50829750879550505050505092915050565b60006020820190508181036000830152612d1d8184612c8e565b905092915050565b600067ffffffffffffffff821115612d4057612d3f612918565b5b612d4982612691565b9050602081019050919050565b6000612d69612d6484612d25565b612978565b905082815260208101848484011115612d8557612d84612913565b5b612d908482856129c4565b509392505050565b600082601f830112612dad57612dac61290e565b5b8135612dbd848260208601612d56565b91505092915050565b60008060008060808587031215612de057612ddf612586565b5b6000612dee878288016127d3565b9450506020612dff878288016127d3565b9350506040612e108782880161271e565b925050606085013567ffffffffffffffff811115612e3157612e3061258b565b5b612e3d87828801612d98565b91505092959194509250565b60008060408385031215612e6057612e5f612586565b5b6000612e6e8582860161271e565b9250506020612e7f85828601612ad2565b9150509250929050565b60008060408385031215612ea057612e9f612586565b5b6000612eae858286016127d3565b9250506020612ebf858286016127d3565b9150509250929050565b600060e082019050612ede600083018a61287b565b8181036020830152612ef081896126a2565b9050612eff6040830188612792565b8181036060830152612f1181876126a2565b9050612f20608083018661287b565b612f2d60a083018561287b565b612f3a60c0830184612621565b98975050505050505050565b7f4e487b7100000000000000000000000000000000000000000000000000000000600052602260045260246000fd5b60006002820490506001821680612f8d57607f821691505b602082108103612fa057612f9f612f46565b5b50919050565b7f4552433732313a20617070726f76616c20746f2063757272656e74206f776e6560008201527f7200000000000000000000000000000000000000000000000000000000000000602082015250565b6000613002602183612656565b915061300d82612fa6565b604082019050919050565b6000602082019050818103600083015261303181612ff5565b9050919050565b7f4552433732313a20617070726f76652063616c6c6572206973206e6f7420746f60008201527f6b656e206f776e6572206f7220617070726f76656420666f7220616c6c000000602082015250565b6000613094603d83612656565b915061309f82613038565b604082019050919050565b600060208201905081810360008301526130c381613087565b9050919050565b7f4552433732313a2063616c6c6572206973206e6f7420746f6b656e206f776e6560008201527f72206f7220617070726f76656400000000000000000000000000000000000000602082015250565b6000613126602d83612656565b9150613131826130ca565b604082019050919050565b6000602082019050818103600083015261315581613119565b9050919050565b7f4f6e6c79206f776e65722063616e207769746864726177000000000000000000600082015250565b6000613192601783612656565b915061319d8261315c565b602082019050919050565b600060208201905081810360008301526131c181613185565b9050919050565b7f4552433732313a20696e76616c696420746f6b656e2049440000000000000000600082015250565b60006131fe601883612656565b9150613209826131c8565b602082019050919050565b6000602082019050818103600083015261322d816131f1565b9050919050565b7f4552433732313a2061646472657373207a65726f206973206e6f74206120766160008201527f6c6964206f776e65720000000000000000000000000000000000000000000000602082015250565b6000613290602983612656565b915061329b82613234565b604082019050919050565b600060208201905081810360008301526132bf81613283565b9050919050565b7f496e636f7272656374207061796d656e7420616d6f756e740000000000000000600082015250565b60006132fc601883612656565b9150613307826132c6565b602082019050919050565b6000602082019050818103600083015261332b816132ef565b9050919050565b7f4e487b7100000000000000000000000000000000000000000000000000000000600052601160045260246000fd5b600061336c826126fd565b91507fffffffffffffffffffffffffffffffffffffffffffffffffffffffffffffffff820361339e5761339d613332565b5b600182019050919050565b60008190508160005260206000209050919050565b60006020601f8301049050919050565b600082821b905092915050565b60006008830261340b7fffffffffffffffffffffffffffffffffffffffffffffffffffffffffffffffff826133ce565b61341586836133ce565b95508019841693508086168417925050509392505050565b6000819050919050565b600061345261344d613448846126fd565b61342d565b6126fd565b9050919050565b6000819050919050565b61346c83613437565b61348061347882613459565b8484546133db565b825550505050565b600090565b613495613488565b6134a0818484613463565b505050565b5b818110156134c4576134b960008261348d565b6001810190506134a6565b5050565b601f821115613509576134da816133a9565b6134e3846133be565b810160208510156134f2578190505b6135066134fe856133be565b8301826134a5565b50505b505050565b600082821c905092915050565b600061352c6000198460080261350e565b1980831691505092915050565b6000613545838361351b565b9150826002028217905092915050565b61355e8261264b565b67ffffffffffffffff81111561357757613576612918565b5b6135818254612f75565b61358c8282856134c8565b600060209050601f8311600181146135bf57600084156135ad578287015190505b6135b78582613539565b86555061361f565b601f1984166135cd866133a9565b60005b828110156135f5578489015182556001820191506020850194506020810190506135d0565b86831015613612578489015161360e601f89168261351b565b8355505b6001600288020188555050505b505050505050565b6000604082019050818103600083015261364181856126a2565b9050613650602083018461287b565b9392505050565b6000613662826126fd565b915061366d836126fd565b925082820390508181111561368557613684613332565b5b92915050565b7f4e487b7100000000000000000000000000000000000000000000000000000000600052603260045260246000fd5b60006136c5826126fd565b91506136d0836126fd565b92508282026136de816126fd565b915082820484148315176136f5576136f4613332565b5b5092915050565b7f4e487b7100000000000000000000000000000000000000000000000000000000600052601260045260246000fd5b6000613736826126fd565b9150613741836126fd565b925082613751576137506136fc565b5b828204905092915050565b7f45786368616e6765206e6f742070726f66697461626c6520656e6f756768202860008201527f3e31302529000000000000000000000000000000000000000000000000000000602082015250565b60006137b8602583612656565b91506137c38261375c565b604082019050919050565b600060208201905081810360008301526137e7816137ab565b9050919050565b7f41727469636c65206e6f74206d61726b656420666f722073616c650000000000600082015250565b6000613824601b83612656565b915061382f826137ee565b602082019050919050565b6000602082019050818103600083015261385381613817565b9050919050565b600081905092915050565b60006138708261264b565b61387a818561385a565b935061388a818560208601612667565b80840191505092915050565b60006138a28285613865565b91506138ae8284613865565b91508190509392505050565b7f596f7520617265206e6f7420746865206f776e6572206f66207468697320617260008201527f7469636c65000000000000000000000000000000000000000000000000000000602082015250565b6000613916602583612656565b9150613921826138ba565b604082019050919050565b6000602082019050818103600083015261394581613909565b9050919050565b7f4552433732313a207472616e736665722066726f6d20696e636f72726563742060008201527f6f776e6572000000000000000000000000000000000000000000000000000000602082015250565b60006139a8602583612656565b91506139b38261394c565b604082019050919050565b600060208201905081810360008301526139d78161399b565b9050919050565b7f4552433732313a207472616e7366657220746f20746865207a65726f2061646460008201527f7265737300000000000000000000000000000000000000000000000000000000602082015250565b6000613a3a602483612656565b9150613a45826139de565b604082019050919050565b60006020820190508181036000830152613a6981613a2d565b9050919050565b7f4552433732313a20617070726f766520746f2063616c6c657200000000000000600082015250565b6000613aa6601983612656565b9150613ab182613a70565b602082019050919050565b60006020820190508181036000830152613ad581613a99565b9050919050565b7f4552433732313a207472616e7366657220746f206e6f6e20455243373231526560008201527f63656976657220696d706c656d656e7465720000000000000000000000000000602082015250565b6000613b38603283612656565b9150613b4382613adc565b604082019050919050565b60006020820190508181036000830152613b6781613b2b565b9050919050565b600081519050919050565b600082825260208201905092915050565b6000613b9582613b6e565b613b9f8185613b79565b9350613baf818560208601612667565b613bb881612691565b840191505092915050565b6000608082019050613bd86000830187612792565b613be56020830186612792565b613bf2604083018561287b565b8181036060830152613c048184613b8a565b905095945050505050565b600081519050613c1e816125bc565b92915050565b600060208284031215613c3a57613c39612586565b5b6000613c4884828501613c0f565b91505092915050565b7f4552433732313a206d696e7420746f20746865207a65726f2061646472657373600082015250565b6000613c87602083612656565b9150613c9282613c51565b602082019050919050565b60006020820190508181036000830152613cb681613c7a565b9050919050565b7f4552433732313a20746f6b656e20616c7265616479206d696e74656400000000600082015250565b6000613cf3601c83612656565b9150613cfe82613cbd565b602082019050919050565b60006020820190508181036000830152613d2281613ce6565b905091905056fea2646970667358221220e246645cba4aae781d170858607872f931d90739eecdbec417169a5004a4412764736f6c63430008120033",
  "linkReferences": {},
  "deployedLinkReferences": {}
}