{
  "_format": "hh-sol-artifact-1",
  "contractName": "ArticlesContract110",
  "sourceName": "contracts/Articles.sol",
  "abi": [
    {
      "inputs": [],
      "stateMutability": "nonpayable",
      "type": "constructor"
    },
    {
      "anonymous": false,
      "inputs": [
        {
          "indexed": true,
          "internalType": "address",
          "name": "owner",
          "type": "address"
        },
        {
          "indexed": true,
          "internalType": "address",
          "name": "approved",
          "type": "address"
        },
        {
          "indexed": true,
          "internalType": "uint256",
          "name": "tokenId",
          "type": "uint256"
        }
      ],
      "name": "Approval",
      "type": "event"
    },
    {
      "anonymous": false,
      "inputs": [
        {
          "indexed": true,
          "internalType": "address",
          "name": "owner",
          "type": "address"
        },
        {
          "indexed": true,
          "internalType": "address",
          "name": "operator",
          "type": "address"
        },
        {
          "indexed": false,
          "internalType": "bool",
          "name": "approved",
          "type": "bool"
        }
      ],
      "name": "ApprovalForAll",
      "type": "event"
    },
    {
      "anonymous": false,
      "inputs": [
        {
          "indexed": true,
          "internalType": "uint256",
          "name": "articleId",
          "type": "uint256"
        },
        {
          "indexed": false,
          "internalType": "string",
          "name": "content",
          "type": "string"
        },
        {
          "indexed": true,
          "internalType": "address",
          "name": "owner",
          "type": "address"
        },
        {
          "indexed": false,
          "internalType": "uint256",
          "name": "amount",
          "type": "uint256"
        }
      ],
      "name": "ArticleCreated",
      "type": "event"
    },
    {
      "anonymous": false,
      "inputs": [
        {
          "indexed": true,
          "internalType": "uint256",
          "name": "articleId",
          "type": "uint256"
        },
        {
          "indexed": false,
          "internalType": "bool",
          "name": "newexchangeable",
          "type": "bool"
        }
      ],
      "name": "ArticleExchangeable",
      "type": "event"
    },
    {
      "anonymous": false,
      "inputs": [
        {
          "indexed": true,
          "internalType": "uint256",
          "name": "articleId",
          "type": "uint256"
        },
        {
          "indexed": true,
          "internalType": "address",
          "name": "oldOwner",
          "type": "address"
        },
        {
          "indexed": true,
          "internalType": "address",
          "name": "newOwner",
          "type": "address"
        }
      ],
      "name": "ArticleSold",
      "type": "event"
    },
    {
      "anonymous": false,
      "inputs": [
        {
          "indexed": true,
          "internalType": "address",
          "name": "from",
          "type": "address"
        },
        {
          "indexed": true,
          "internalType": "address",
          "name": "to",
          "type": "address"
        },
        {
          "indexed": true,
          "internalType": "uint256",
          "name": "tokenId",
          "type": "uint256"
        }
      ],
      "name": "Transfer",
      "type": "event"
    },
    {
      "inputs": [
        {
          "internalType": "address",
          "name": "to",
          "type": "address"
        },
        {
          "internalType": "uint256",
          "name": "tokenId",
          "type": "uint256"
        }
      ],
      "name": "approve",
      "outputs": [],
      "stateMutability": "nonpayable",
      "type": "function"
    },
    {
      "inputs": [],
      "name": "articleCount",
      "outputs": [
        {
          "internalType": "uint256",
          "name": "",
          "type": "uint256"
        }
      ],
      "stateMutability": "view",
      "type": "function"
    },
    {
      "inputs": [
        {
          "internalType": "uint256",
          "name": "",
          "type": "uint256"
        }
      ],
      "name": "articles",
      "outputs": [
        {
          "internalType": "uint256",
          "name": "id",
          "type": "uint256"
        },
        {
          "internalType": "string",
          "name": "content",
          "type": "string"
        },
        {
          "internalType": "address",
          "name": "owner",
          "type": "address"
        },
        {
          "internalType": "string",
          "name": "tags",
          "type": "string"
        },
        {
          "internalType": "uint256",
          "name": "created",
          "type": "uint256"
        },
        {
          "internalType": "uint256",
          "name": "amount",
          "type": "uint256"
        },
        {
          "internalType": "bool",
          "name": "exchangeable",
          "type": "bool"
        }
      ],
      "stateMutability": "view",
      "type": "function"
    },
    {
      "inputs": [
        {
          "internalType": "address",
          "name": "owner",
          "type": "address"
        }
      ],
      "name": "balanceOf",
      "outputs": [
        {
          "internalType": "uint256",
          "name": "",
          "type": "uint256"
        }
      ],
      "stateMutability": "view",
      "type": "function"
    },
    {
      "inputs": [
        {
          "internalType": "string",
          "name": "_content",
          "type": "string"
        },
        {
          "internalType": "string",
          "name": "_tags",
          "type": "string"
        },
        {
          "internalType": "uint256",
          "name": "_amount",
          "type": "uint256"
        }
      ],
      "name": "createArticle",
      "outputs": [],
      "stateMutability": "payable",
      "type": "function"
    },
    {
      "inputs": [
        {
          "internalType": "uint256",
          "name": "_articleId",
          "type": "uint256"
        },
        {
          "internalType": "address",
          "name": "_newOwner",
          "type": "address"
        },
        {
          "internalType": "uint256",
          "name": "_newAmount",
          "type": "uint256"
        }
      ],
      "name": "exchangeArticle",
      "outputs": [],
      "stateMutability": "nonpayable",
      "type": "function"
    },
    {
      "inputs": [
        {
          "internalType": "uint256",
          "name": "_articleId",
          "type": "uint256"
        },
        {
          "internalType": "bool",
          "name": "_exchangeable",
          "type": "bool"
        }
      ],
      "name": "exchangeableArticle",
      "outputs": [],
      "stateMutability": "nonpayable",
      "type": "function"
    },
    {
      "inputs": [],
      "name": "getAllArticles",
      "outputs": [
        {
          "components": [
            {
              "internalType": "uint256",
              "name": "id",
              "type": "uint256"
            },
            {
              "internalType": "string",
              "name": "content",
              "type": "string"
            },
            {
              "internalType": "address",
              "name": "owner",
              "type": "address"
            },
            {
              "internalType": "string",
              "name": "tags",
              "type": "string"
            },
            {
              "internalType": "uint256",
              "name": "created",
              "type": "uint256"
            },
            {
              "internalType": "uint256",
              "name": "amount",
              "type": "uint256"
            },
            {
              "internalType": "bool",
              "name": "exchangeable",
              "type": "bool"
            }
          ],
          "internalType": "struct ArticlesContract110.Article[]",
          "name": "",
          "type": "tuple[]"
        }
      ],
      "stateMutability": "view",
      "type": "function"
    },
    {
      "inputs": [
        {
          "internalType": "uint256",
          "name": "tokenId",
          "type": "uint256"
        }
      ],
      "name": "getApproved",
      "outputs": [
        {
          "internalType": "address",
          "name": "",
          "type": "address"
        }
      ],
      "stateMutability": "view",
      "type": "function"
    },
    {
      "inputs": [],
      "name": "getArticleCount",
      "outputs": [
        {
          "internalType": "uint256",
          "name": "",
          "type": "uint256"
        }
      ],
      "stateMutability": "view",
      "type": "function"
    },
    {
      "inputs": [
        {
          "internalType": "address",
          "name": "owner",
          "type": "address"
        },
        {
          "internalType": "address",
          "name": "operator",
          "type": "address"
        }
      ],
      "name": "isApprovedForAll",
      "outputs": [
        {
          "internalType": "bool",
          "name": "",
          "type": "bool"
        }
      ],
      "stateMutability": "view",
      "type": "function"
    },
    {
      "inputs": [],
      "name": "manager",
      "outputs": [
        {
          "internalType": "address payable",
          "name": "",
          "type": "address"
        }
      ],
      "stateMutability": "view",
      "type": "function"
    },
    {
      "inputs": [],
      "name": "name",
      "outputs": [
        {
          "internalType": "string",
          "name": "",
          "type": "string"
        }
      ],
      "stateMutability": "view",
      "type": "function"
    },
    {
      "inputs": [
        {
          "internalType": "uint256",
          "name": "tokenId",
          "type": "uint256"
        }
      ],
      "name": "ownerOf",
      "outputs": [
        {
          "internalType": "address",
          "name": "",
          "type": "address"
        }
      ],
      "stateMutability": "view",
      "type": "function"
    },
    {
      "inputs": [
        {
          "internalType": "address",
          "name": "from",
          "type": "address"
        },
        {
          "internalType": "address",
          "name": "to",
          "type": "address"
        },
        {
          "internalType": "uint256",
          "name": "tokenId",
          "type": "uint256"
        }
      ],
      "name": "safeTransferFrom",
      "outputs": [],
      "stateMutability": "nonpayable",
      "type": "function"
    },
    {
      "inputs": [
        {
          "internalType": "address",
          "name": "from",
          "type": "address"
        },
        {
          "internalType": "address",
          "name": "to",
          "type": "address"
        },
        {
          "internalType": "uint256",
          "name": "tokenId",
          "type": "uint256"
        },
        {
          "internalType": "bytes",
          "name": "data",
          "type": "bytes"
        }
      ],
      "name": "safeTransferFrom",
      "outputs": [],
      "stateMutability": "nonpayable",
      "type": "function"
    },
    {
      "inputs": [
        {
          "internalType": "address",
          "name": "operator",
          "type": "address"
        },
        {
          "internalType": "bool",
          "name": "approved",
          "type": "bool"
        }
      ],
      "name": "setApprovalForAll",
      "outputs": [],
      "stateMutability": "nonpayable",
      "type": "function"
    },
    {
      "inputs": [
        {
          "internalType": "bytes4",
          "name": "interfaceId",
          "type": "bytes4"
        }
      ],
      "name": "supportsInterface",
      "outputs": [
        {
          "internalType": "bool",
          "name": "",
          "type": "bool"
        }
      ],
      "stateMutability": "view",
      "type": "function"
    },
    {
      "inputs": [],
      "name": "symbol",
      "outputs": [
        {
          "internalType": "string",
          "name": "",
          "type": "string"
        }
      ],
      "stateMutability": "view",
      "type": "function"
    },
    {
      "inputs": [
        {
          "internalType": "uint256",
          "name": "tokenId",
          "type": "uint256"
        }
      ],
      "name": "tokenURI",
      "outputs": [
        {
          "internalType": "string",
          "name": "",
          "type": "string"
        }
      ],
      "stateMutability": "view",
      "type": "function"
    },
    {
      "inputs": [
        {
          "internalType": "address",
          "name": "from",
          "type": "address"
        },
        {
          "internalType": "address",
          "name": "to",
          "type": "address"
        },
        {
          "internalType": "uint256",
          "name": "tokenId",
          "type": "uint256"
        }
      ],
      "name": "transferFrom",
      "outputs": [],
      "stateMutability": "nonpayable",
      "type": "function"
    },
    {
      "inputs": [],
      "name": "withdraw",
      "outputs": [],
      "stateMutability": "nonpayable",
      "type": "function"
    }
  ],
  "bytecode": "0x60806040523480156200001157600080fd5b506040518060400160405280600881526020017f41727469636c65730000000000000000000000000000000000000000000000008152506040518060400160405280600381526020017f415254000000000000000000000000000000000000000000000000000000000081525081600090816200008f919062000365565b508060019081620000a1919062000365565b50505033600660006101000a81548173ffffffffffffffffffffffffffffffffffffffff021916908373ffffffffffffffffffffffffffffffffffffffff1602179055506200044c565b600081519050919050565b7f4e487b7100000000000000000000000000000000000000000000000000000000600052604160045260246000fd5b7f4e487b7100000000000000000000000000000000000000000000000000000000600052602260045260246000fd5b600060028204905060018216806200016d57607f821691505b60208210810362000183576200018262000125565b5b50919050565b60008190508160005260206000209050919050565b60006020601f8301049050919050565b600082821b905092915050565b600060088302620001ed7fffffffffffffffffffffffffffffffffffffffffffffffffffffffffffffffff82620001ae565b620001f98683620001ae565b95508019841693508086168417925050509392505050565b6000819050919050565b6000819050919050565b600062000246620002406200023a8462000211565b6200021b565b62000211565b9050919050565b6000819050919050565b620002628362000225565b6200027a62000271826200024d565b848454620001bb565b825550505050565b600090565b6200029162000282565b6200029e81848462000257565b505050565b5b81811015620002c657620002ba60008262000287565b600181019050620002a4565b5050565b601f8211156200031557620002df8162000189565b620002ea846200019e565b81016020851015620002fa578190505b6200031262000309856200019e565b830182620002a3565b50505b505050565b600082821c905092915050565b60006200033a600019846008026200031a565b1980831691505092915050565b600062000355838362000327565b9150826002028217905092915050565b6200037082620000eb565b67ffffffffffffffff8111156200038c576200038b620000f6565b5b62000398825462000154565b620003a5828285620002ca565b600060209050601f831160018114620003dd5760008415620003c8578287015190505b620003d4858262000347565b86555062000444565b601f198416620003ed8662000189565b60005b828110156200041757848901518255600182019150602085019450602081019050620003f0565b8683101562000437578489015162000433601f89168262000327565b8355505b6001600288020188555050505b505050505050565b613bf2806200045c6000396000f3fe6080604052600436106101355760003560e01c80638ea751bb116100ab578063bd5d9cef1161006f578063bd5d9cef14610412578063c87b56dd1461042e578063d45338591461046b578063e899d5ff14610494578063e985e9c5146104bf578063edcfafe6146104fc57610135565b80638ea751bb1461034157806395d89b411461036a578063a22cb46514610395578063b44d310b146103be578063b88d4fde146103e957610135565b80633ccfd60b116100fd5780633ccfd60b14610231578063414e28b01461024857806342842e0e14610273578063481c6a751461029c5780636352211e146102c757806370a082311461030457610135565b806301ffc9a71461013a57806306fdde0314610177578063081812fc146101a2578063095ea7b3146101df57806323b872dd14610208575b600080fd5b34801561014657600080fd5b50610161600480360381019061015c9190612481565b61053f565b60405161016e91906124c9565b60405180910390f35b34801561018357600080fd5b5061018c610621565b6040516101999190612574565b60405180910390f35b3480156101ae57600080fd5b506101c960048036038101906101c491906125cc565b6106b3565b6040516101d6919061263a565b60405180910390f35b3480156101eb57600080fd5b5061020660048036038101906102019190612681565b6106f9565b005b34801561021457600080fd5b5061022f600480360381019061022a91906126c1565b610810565b005b34801561023d57600080fd5b50610246610870565b005b34801561025457600080fd5b5061025d61096b565b60405161026a9190612723565b60405180910390f35b34801561027f57600080fd5b5061029a600480360381019061029591906126c1565b610971565b005b3480156102a857600080fd5b506102b1610991565b6040516102be919061275f565b60405180910390f35b3480156102d357600080fd5b506102ee60048036038101906102e991906125cc565b6109b7565b6040516102fb919061263a565b60405180910390f35b34801561031057600080fd5b5061032b6004803603810190610326919061277a565b610a3d565b6040516103389190612723565b60405180910390f35b34801561034d57600080fd5b50610368600480360381019061036391906127a7565b610af4565b005b34801561037657600080fd5b5061037f610dad565b60405161038c9190612574565b60405180910390f35b3480156103a157600080fd5b506103bc60048036038101906103b79190612826565b610e3f565b005b3480156103ca57600080fd5b506103d3610e55565b6040516103e09190612a42565b60405180910390f35b3480156103f557600080fd5b50610410600480360381019061040b9190612b99565b6110d7565b005b61042c60048036038101906104279190612cbd565b611139565b005b34801561043a57600080fd5b50610455600480360381019061045091906125cc565b6112d6565b6040516104629190612574565b60405180910390f35b34801561047757600080fd5b50610492600480360381019061048d9190612d48565b61133e565b005b3480156104a057600080fd5b506104a961144e565b6040516104b69190612723565b60405180910390f35b3480156104cb57600080fd5b506104e660048036038101906104e19190612d88565b611458565b6040516104f391906124c9565b60405180910390f35b34801561050857600080fd5b50610523600480360381019061051e91906125cc565b6114ec565b6040516105369796959493929190612dc8565b60405180910390f35b60007f80ac58cd000000000000000000000000000000000000000000000000000000007bffffffffffffffffffffffffffffffffffffffffffffffffffffffff1916827bffffffffffffffffffffffffffffffffffffffffffffffffffffffff1916148061060a57507f5b5e139f000000000000000000000000000000000000000000000000000000007bffffffffffffffffffffffffffffffffffffffffffffffffffffffff1916827bffffffffffffffffffffffffffffffffffffffffffffffffffffffff1916145b8061061a57506106198261166b565b5b9050919050565b60606000805461063090612e74565b80601f016020809104026020016040519081016040528092919081815260200182805461065c90612e74565b80156106a95780601f1061067e576101008083540402835291602001916106a9565b820191906000526020600020905b81548152906001019060200180831161068c57829003601f168201915b5050505050905090565b60006106be826116d5565b6004600083815260200190815260200160002060009054906101000a900473ffffffffffffffffffffffffffffffffffffffff169050919050565b6000610704826109b7565b90508073ffffffffffffffffffffffffffffffffffffffff168373ffffffffffffffffffffffffffffffffffffffff1603610774576040517f08c379a000000000000000000000000000000000000000000000000000000000815260040161076b90612f17565b60405180910390fd5b8073ffffffffffffffffffffffffffffffffffffffff16610793611720565b73ffffffffffffffffffffffffffffffffffffffff1614806107c257506107c1816107bc611720565b611458565b5b610801576040517f08c379a00000000000000000000000000000000000000000000000000000000081526004016107f890612fa9565b60405180910390fd5b61080b8383611728565b505050565b61082161081b611720565b826117e1565b610860576040517f08c379a00000000000000000000000000000000000000000000000000000000081526004016108579061303b565b60405180910390fd5b61086b838383611876565b505050565b600660009054906101000a900473ffffffffffffffffffffffffffffffffffffffff1673ffffffffffffffffffffffffffffffffffffffff163373ffffffffffffffffffffffffffffffffffffffff1614610900576040517f08c379a00000000000000000000000000000000000000000000000000000000081526004016108f7906130a7565b60405180910390fd5b600660009054906101000a900473ffffffffffffffffffffffffffffffffffffffff1673ffffffffffffffffffffffffffffffffffffffff166108fc479081150290604051600060405180830381858888f19350505050158015610968573d6000803e3d6000fd5b50565b60075481565b61098c838383604051806020016040528060008152506110d7565b505050565b600660009054906101000a900473ffffffffffffffffffffffffffffffffffffffff1681565b6000806109c383611b6f565b9050600073ffffffffffffffffffffffffffffffffffffffff168173ffffffffffffffffffffffffffffffffffffffff1603610a34576040517f08c379a0000000000000000000000000000000000000000000000000000000008152600401610a2b90613113565b60405180910390fd5b80915050919050565b60008073ffffffffffffffffffffffffffffffffffffffff168273ffffffffffffffffffffffffffffffffffffffff1603610aad576040517f08c379a0000000000000000000000000000000000000000000000000000000008152600401610aa4906131a5565b60405180910390fd5b600360008373ffffffffffffffffffffffffffffffffffffffff1673ffffffffffffffffffffffffffffffffffffffff168152602001908152602001600020549050919050565b60006008600085815260200190815260200160002060020160009054906101000a900473ffffffffffffffffffffffffffffffffffffffff1690506000600860008681526020019081526020016000206005015490506064606e82610b5991906131f4565b610b639190613265565b831015610ba5576040517f08c379a0000000000000000000000000000000000000000000000000000000008152600401610b9c90613308565b60405180910390fd5b600115156008600087815260200190815260200160002060060160009054906101000a900460ff16151514610c0f576040517f08c379a0000000000000000000000000000000000000000000000000000000008152600401610c0690613374565b60405180910390fd5b836008600087815260200190815260200160002060020160006101000a81548173ffffffffffffffffffffffffffffffffffffffff021916908373ffffffffffffffffffffffffffffffffffffffff160217905550826008600087815260200190815260200160002060050181905550610c8a828587611876565b6000600a8285610c9a9190613394565b610ca49190613265565b90503073ffffffffffffffffffffffffffffffffffffffff166108fc829081150290604051600060405180830381858888f19350505050158015610cec573d6000803e3d6000fd5b508273ffffffffffffffffffffffffffffffffffffffff166108fc828487610d149190613394565b610d1e9190613394565b9081150290604051600060405180830381858888f19350505050158015610d49573d6000803e3d6000fd5b508473ffffffffffffffffffffffffffffffffffffffff168373ffffffffffffffffffffffffffffffffffffffff16877ffbd2d55912fe1cb56cd9baec6485fff2215ba3da96107bb4eea84a0f0e9a4f5460405160405180910390a4505050505050565b606060018054610dbc90612e74565b80601f0160208091040260200160405190810160405280929190818152602001828054610de890612e74565b8015610e355780601f10610e0a57610100808354040283529160200191610e35565b820191906000526020600020905b815481529060010190602001808311610e1857829003601f168201915b5050505050905090565b610e51610e4a611720565b8383611bac565b5050565b6060600060075467ffffffffffffffff811115610e7557610e74612a6e565b5b604051908082528060200260200182016040528015610eae57816020015b610e9b6123c0565b815260200190600190039081610e935790505b5090506000600190505b60075481116110cf57600860008281526020019081526020016000206040518060e001604052908160008201548152602001600182018054610ef990612e74565b80601f0160208091040260200160405190810160405280929190818152602001828054610f2590612e74565b8015610f725780601f10610f4757610100808354040283529160200191610f72565b820191906000526020600020905b815481529060010190602001808311610f5557829003601f168201915b505050505081526020016002820160009054906101000a900473ffffffffffffffffffffffffffffffffffffffff1673ffffffffffffffffffffffffffffffffffffffff1673ffffffffffffffffffffffffffffffffffffffff168152602001600382018054610fe190612e74565b80601f016020809104026020016040519081016040528092919081815260200182805461100d90612e74565b801561105a5780601f1061102f5761010080835404028352916020019161105a565b820191906000526020600020905b81548152906001019060200180831161103d57829003601f168201915b5050505050815260200160048201548152602001600582015481526020016006820160009054906101000a900460ff161515151581525050826001836110a09190613394565b815181106110b1576110b06133c8565b5b602002602001018190525080806110c7906133f7565b915050610eb8565b508091505090565b6110e86110e2611720565b836117e1565b611127576040517f08c379a000000000000000000000000000000000000000000000000000000000815260040161111e9061303b565b60405180910390fd5b61113384848484611d18565b50505050565b6007600081548092919061114c906133f7565b91905055506000600754905060006040518060e001604052808381526020018681526020013373ffffffffffffffffffffffffffffffffffffffff168152602001858152602001428152602001848152602001600015158152509050806008600060075481526020019081526020016000206000820151816000015560208201518160010190816111dd91906135eb565b5060408201518160020160006101000a81548173ffffffffffffffffffffffffffffffffffffffff021916908373ffffffffffffffffffffffffffffffffffffffff160217905550606082015181600301908161123a91906135eb565b506080820151816004015560a0820151816005015560c08201518160060160006101000a81548160ff02191690831515021790555090505061127c3383611d74565b3373ffffffffffffffffffffffffffffffffffffffff166007547f7d947412b2e027bd98da1e8b47e87b80aa0e8a6f0549b5eda4ca32310012253887866040516112c79291906136bd565b60405180910390a35050505050565b60606112e1826116d5565b60006112eb611f91565b9050600081511161130b5760405180602001604052806000815250611336565b8061131584611fa8565b604051602001611326929190613729565b6040516020818303038152906040525b915050919050565b813373ffffffffffffffffffffffffffffffffffffffff166008600083815260200190815260200160002060020160009054906101000a900473ffffffffffffffffffffffffffffffffffffffff1673ffffffffffffffffffffffffffffffffffffffff16146113e3576040517f08c379a00000000000000000000000000000000000000000000000000000000081526004016113da906137bf565b60405180910390fd5b816008600085815260200190815260200160002060060160006101000a81548160ff021916908315150217905550827f34b4aa7df0aafc0d8a801fff725827d33114f67ad541d75f62bd49724bb827ad8360405161144191906124c9565b60405180910390a2505050565b6000600754905090565b6000600560008473ffffffffffffffffffffffffffffffffffffffff1673ffffffffffffffffffffffffffffffffffffffff16815260200190815260200160002060008373ffffffffffffffffffffffffffffffffffffffff1673ffffffffffffffffffffffffffffffffffffffff16815260200190815260200160002060009054906101000a900460ff16905092915050565b600860205280600052604060002060009150905080600001549080600101805461151590612e74565b80601f016020809104026020016040519081016040528092919081815260200182805461154190612e74565b801561158e5780601f106115635761010080835404028352916020019161158e565b820191906000526020600020905b81548152906001019060200180831161157157829003601f168201915b5050505050908060020160009054906101000a900473ffffffffffffffffffffffffffffffffffffffff16908060030180546115c990612e74565b80601f01602080910402602001604051908101604052809291908181526020018280546115f590612e74565b80156116425780601f1061161757610100808354040283529160200191611642565b820191906000526020600020905b81548152906001019060200180831161162557829003601f168201915b5050505050908060040154908060050154908060060160009054906101000a900460ff16905087565b60007f01ffc9a7000000000000000000000000000000000000000000000000000000007bffffffffffffffffffffffffffffffffffffffffffffffffffffffff1916827bffffffffffffffffffffffffffffffffffffffffffffffffffffffff1916149050919050565b6116de81612076565b61171d576040517f08c379a000000000000000000000000000000000000000000000000000000000815260040161171490613113565b60405180910390fd5b50565b600033905090565b816004600083815260200190815260200160002060006101000a81548173ffffffffffffffffffffffffffffffffffffffff021916908373ffffffffffffffffffffffffffffffffffffffff160217905550808273ffffffffffffffffffffffffffffffffffffffff1661179b836109b7565b73ffffffffffffffffffffffffffffffffffffffff167f8c5be1e5ebec7d5bd14f71427d1e84f3dd0314c0f7b2291e5b200ac8c7c3b92560405160405180910390a45050565b6000806117ed836109b7565b90508073ffffffffffffffffffffffffffffffffffffffff168473ffffffffffffffffffffffffffffffffffffffff16148061182f575061182e8185611458565b5b8061186d57508373ffffffffffffffffffffffffffffffffffffffff16611855846106b3565b73ffffffffffffffffffffffffffffffffffffffff16145b91505092915050565b8273ffffffffffffffffffffffffffffffffffffffff16611896826109b7565b73ffffffffffffffffffffffffffffffffffffffff16146118ec576040517f08c379a00000000000000000000000000000000000000000000000000000000081526004016118e390613851565b60405180910390fd5b600073ffffffffffffffffffffffffffffffffffffffff168273ffffffffffffffffffffffffffffffffffffffff160361195b576040517f08c379a0000000000000000000000000000000000000000000000000000000008152600401611952906138e3565b60405180910390fd5b61196883838360016120b7565b8273ffffffffffffffffffffffffffffffffffffffff16611988826109b7565b73ffffffffffffffffffffffffffffffffffffffff16146119de576040517f08c379a00000000000000000000000000000000000000000000000000000000081526004016119d590613851565b60405180910390fd5b6004600082815260200190815260200160002060006101000a81549073ffffffffffffffffffffffffffffffffffffffff02191690556001600360008573ffffffffffffffffffffffffffffffffffffffff1673ffffffffffffffffffffffffffffffffffffffff168152602001908152602001600020600082825403925050819055506001600360008473ffffffffffffffffffffffffffffffffffffffff1673ffffffffffffffffffffffffffffffffffffffff16815260200190815260200160002060008282540192505081905550816002600083815260200190815260200160002060006101000a81548173ffffffffffffffffffffffffffffffffffffffff021916908373ffffffffffffffffffffffffffffffffffffffff160217905550808273ffffffffffffffffffffffffffffffffffffffff168473ffffffffffffffffffffffffffffffffffffffff167fddf252ad1be2c89b69c2b068fc378daa952ba7f163c4a11628f55a4df523b3ef60405160405180910390a4611b6a83838360016120bd565b505050565b60006002600083815260200190815260200160002060009054906101000a900473ffffffffffffffffffffffffffffffffffffffff169050919050565b8173ffffffffffffffffffffffffffffffffffffffff168373ffffffffffffffffffffffffffffffffffffffff1603611c1a576040517f08c379a0000000000000000000000000000000000000000000000000000000008152600401611c119061394f565b60405180910390fd5b80600560008573ffffffffffffffffffffffffffffffffffffffff1673ffffffffffffffffffffffffffffffffffffffff16815260200190815260200160002060008473ffffffffffffffffffffffffffffffffffffffff1673ffffffffffffffffffffffffffffffffffffffff16815260200190815260200160002060006101000a81548160ff0219169083151502179055508173ffffffffffffffffffffffffffffffffffffffff168373ffffffffffffffffffffffffffffffffffffffff167f17307eab39ab6107e8899845ad3d59bd9653f200f220920489ca2b5937696c3183604051611d0b91906124c9565b60405180910390a3505050565b611d23848484611876565b611d2f848484846120c3565b611d6e576040517f08c379a0000000000000000000000000000000000000000000000000000000008152600401611d65906139e1565b60405180910390fd5b50505050565b600073ffffffffffffffffffffffffffffffffffffffff168273ffffffffffffffffffffffffffffffffffffffff1603611de3576040517f08c379a0000000000000000000000000000000000000000000000000000000008152600401611dda90613a4d565b60405180910390fd5b611dec81612076565b15611e2c576040517f08c379a0000000000000000000000000000000000000000000000000000000008152600401611e2390613ab9565b60405180910390fd5b611e3a6000838360016120b7565b611e4381612076565b15611e83576040517f08c379a0000000000000000000000000000000000000000000000000000000008152600401611e7a90613ab9565b60405180910390fd5b6001600360008473ffffffffffffffffffffffffffffffffffffffff1673ffffffffffffffffffffffffffffffffffffffff16815260200190815260200160002060008282540192505081905550816002600083815260200190815260200160002060006101000a81548173ffffffffffffffffffffffffffffffffffffffff021916908373ffffffffffffffffffffffffffffffffffffffff160217905550808273ffffffffffffffffffffffffffffffffffffffff16600073ffffffffffffffffffffffffffffffffffffffff167fddf252ad1be2c89b69c2b068fc378daa952ba7f163c4a11628f55a4df523b3ef60405160405180910390a4611f8d6000838360016120bd565b5050565b606060405180602001604052806000815250905090565b606060006001611fb78461224a565b01905060008167ffffffffffffffff811115611fd657611fd5612a6e565b5b6040519080825280601f01601f1916602001820160405280156120085781602001600182028036833780820191505090505b509050600082602001820190505b60011561206b578080600190039150507f3031323334353637383961626364656600000000000000000000000000000000600a86061a8153600a858161205f5761205e613236565b5b04945060008503612016575b819350505050919050565b60008073ffffffffffffffffffffffffffffffffffffffff1661209883611b6f565b73ffffffffffffffffffffffffffffffffffffffff1614159050919050565b50505050565b50505050565b60006120e48473ffffffffffffffffffffffffffffffffffffffff1661239d565b1561223d578373ffffffffffffffffffffffffffffffffffffffff1663150b7a0261210d611720565b8786866040518563ffffffff1660e01b815260040161212f9493929190613b2e565b6020604051808303816000875af192505050801561216b57506040513d601f19601f820116820180604052508101906121689190613b8f565b60015b6121ed573d806000811461219b576040519150601f19603f3d011682016040523d82523d6000602084013e6121a0565b606091505b5060008151036121e5576040517f08c379a00000000000000000000000000000000000000000000000000000000081526004016121dc906139e1565b60405180910390fd5b805181602001fd5b63150b7a0260e01b7bffffffffffffffffffffffffffffffffffffffffffffffffffffffff1916817bffffffffffffffffffffffffffffffffffffffffffffffffffffffff191614915050612242565b600190505b949350505050565b600080600090507a184f03e93ff9f4daa797ed6e38ed64bf6a1f01000000000000000083106122a8577a184f03e93ff9f4daa797ed6e38ed64bf6a1f010000000000000000838161229e5761229d613236565b5b0492506040810190505b6d04ee2d6d415b85acef810000000083106122e5576d04ee2d6d415b85acef810000000083816122db576122da613236565b5b0492506020810190505b662386f26fc10000831061231457662386f26fc10000838161230a57612309613236565b5b0492506010810190505b6305f5e100831061233d576305f5e100838161233357612332613236565b5b0492506008810190505b612710831061236257612710838161235857612357613236565b5b0492506004810190505b60648310612385576064838161237b5761237a613236565b5b0492506002810190505b600a8310612394576001810190505b80915050919050565b6000808273ffffffffffffffffffffffffffffffffffffffff163b119050919050565b6040518060e001604052806000815260200160608152602001600073ffffffffffffffffffffffffffffffffffffffff1681526020016060815260200160008152602001600081526020016000151581525090565b6000604051905090565b600080fd5b600080fd5b60007fffffffff0000000000000000000000000000000000000000000000000000000082169050919050565b61245e81612429565b811461246957600080fd5b50565b60008135905061247b81612455565b92915050565b6000602082840312156124975761249661241f565b5b60006124a58482850161246c565b91505092915050565b60008115159050919050565b6124c3816124ae565b82525050565b60006020820190506124de60008301846124ba565b92915050565b600081519050919050565b600082825260208201905092915050565b60005b8381101561251e578082015181840152602081019050612503565b60008484015250505050565b6000601f19601f8301169050919050565b6000612546826124e4565b61255081856124ef565b9350612560818560208601612500565b6125698161252a565b840191505092915050565b6000602082019050818103600083015261258e818461253b565b905092915050565b6000819050919050565b6125a981612596565b81146125b457600080fd5b50565b6000813590506125c6816125a0565b92915050565b6000602082840312156125e2576125e161241f565b5b60006125f0848285016125b7565b91505092915050565b600073ffffffffffffffffffffffffffffffffffffffff82169050919050565b6000612624826125f9565b9050919050565b61263481612619565b82525050565b600060208201905061264f600083018461262b565b92915050565b61265e81612619565b811461266957600080fd5b50565b60008135905061267b81612655565b92915050565b600080604083850312156126985761269761241f565b5b60006126a68582860161266c565b92505060206126b7858286016125b7565b9150509250929050565b6000806000606084860312156126da576126d961241f565b5b60006126e88682870161266c565b93505060206126f98682870161266c565b925050604061270a868287016125b7565b9150509250925092565b61271d81612596565b82525050565b60006020820190506127386000830184612714565b92915050565b6000612749826125f9565b9050919050565b6127598161273e565b82525050565b60006020820190506127746000830184612750565b92915050565b6000602082840312156127905761278f61241f565b5b600061279e8482850161266c565b91505092915050565b6000806000606084860312156127c0576127bf61241f565b5b60006127ce868287016125b7565b93505060206127df8682870161266c565b92505060406127f0868287016125b7565b9150509250925092565b612803816124ae565b811461280e57600080fd5b50565b600081359050612820816127fa565b92915050565b6000806040838503121561283d5761283c61241f565b5b600061284b8582860161266c565b925050602061285c85828601612811565b9150509250929050565b600081519050919050565b600082825260208201905092915050565b6000819050602082019050919050565b61289b81612596565b82525050565b600082825260208201905092915050565b60006128bd826124e4565b6128c781856128a1565b93506128d7818560208601612500565b6128e08161252a565b840191505092915050565b6128f481612619565b82525050565b612903816124ae565b82525050565b600060e0830160008301516129216000860182612892565b506020830151848203602086015261293982826128b2565b915050604083015161294e60408601826128eb565b506060830151848203606086015261296682826128b2565b915050608083015161297b6080860182612892565b5060a083015161298e60a0860182612892565b5060c08301516129a160c08601826128fa565b508091505092915050565b60006129b88383612909565b905092915050565b6000602082019050919050565b60006129d882612866565b6129e28185612871565b9350836020820285016129f485612882565b8060005b85811015612a305784840389528151612a1185826129ac565b9450612a1c836129c0565b925060208a019950506001810190506129f8565b50829750879550505050505092915050565b60006020820190508181036000830152612a5c81846129cd565b905092915050565b600080fd5b600080fd5b7f4e487b7100000000000000000000000000000000000000000000000000000000600052604160045260246000fd5b612aa68261252a565b810181811067ffffffffffffffff82111715612ac557612ac4612a6e565b5b80604052505050565b6000612ad8612415565b9050612ae48282612a9d565b919050565b600067ffffffffffffffff821115612b0457612b03612a6e565b5b612b0d8261252a565b9050602081019050919050565b82818337600083830152505050565b6000612b3c612b3784612ae9565b612ace565b905082815260208101848484011115612b5857612b57612a69565b5b612b63848285612b1a565b509392505050565b600082601f830112612b8057612b7f612a64565b5b8135612b90848260208601612b29565b91505092915050565b60008060008060808587031215612bb357612bb261241f565b5b6000612bc18782880161266c565b9450506020612bd28782880161266c565b9350506040612be3878288016125b7565b925050606085013567ffffffffffffffff811115612c0457612c03612424565b5b612c1087828801612b6b565b91505092959194509250565b600067ffffffffffffffff821115612c3757612c36612a6e565b5b612c408261252a565b9050602081019050919050565b6000612c60612c5b84612c1c565b612ace565b905082815260208101848484011115612c7c57612c7b612a69565b5b612c87848285612b1a565b509392505050565b600082601f830112612ca457612ca3612a64565b5b8135612cb4848260208601612c4d565b91505092915050565b600080600060608486031215612cd657612cd561241f565b5b600084013567ffffffffffffffff811115612cf457612cf3612424565b5b612d0086828701612c8f565b935050602084013567ffffffffffffffff811115612d2157612d20612424565b5b612d2d86828701612c8f565b9250506040612d3e868287016125b7565b9150509250925092565b60008060408385031215612d5f57612d5e61241f565b5b6000612d6d858286016125b7565b9250506020612d7e85828601612811565b9150509250929050565b60008060408385031215612d9f57612d9e61241f565b5b6000612dad8582860161266c565b9250506020612dbe8582860161266c565b9150509250929050565b600060e082019050612ddd600083018a612714565b8181036020830152612def818961253b565b9050612dfe604083018861262b565b8181036060830152612e10818761253b565b9050612e1f6080830186612714565b612e2c60a0830185612714565b612e3960c08301846124ba565b98975050505050505050565b7f4e487b7100000000000000000000000000000000000000000000000000000000600052602260045260246000fd5b60006002820490506001821680612e8c57607f821691505b602082108103612e9f57612e9e612e45565b5b50919050565b7f4552433732313a20617070726f76616c20746f2063757272656e74206f776e6560008201527f7200000000000000000000000000000000000000000000000000000000000000602082015250565b6000612f016021836124ef565b9150612f0c82612ea5565b604082019050919050565b60006020820190508181036000830152612f3081612ef4565b9050919050565b7f4552433732313a20617070726f76652063616c6c6572206973206e6f7420746f60008201527f6b656e206f776e6572206f7220617070726f76656420666f7220616c6c000000602082015250565b6000612f93603d836124ef565b9150612f9e82612f37565b604082019050919050565b60006020820190508181036000830152612fc281612f86565b9050919050565b7f4552433732313a2063616c6c6572206973206e6f7420746f6b656e206f776e6560008201527f72206f7220617070726f76656400000000000000000000000000000000000000602082015250565b6000613025602d836124ef565b915061303082612fc9565b604082019050919050565b6000602082019050818103600083015261305481613018565b9050919050565b7f4f6e6c79206f776e65722063616e207769746864726177000000000000000000600082015250565b60006130916017836124ef565b915061309c8261305b565b602082019050919050565b600060208201905081810360008301526130c081613084565b9050919050565b7f4552433732313a20696e76616c696420746f6b656e2049440000000000000000600082015250565b60006130fd6018836124ef565b9150613108826130c7565b602082019050919050565b6000602082019050818103600083015261312c816130f0565b9050919050565b7f4552433732313a2061646472657373207a65726f206973206e6f74206120766160008201527f6c6964206f776e65720000000000000000000000000000000000000000000000602082015250565b600061318f6029836124ef565b915061319a82613133565b604082019050919050565b600060208201905081810360008301526131be81613182565b9050919050565b7f4e487b7100000000000000000000000000000000000000000000000000000000600052601160045260246000fd5b60006131ff82612596565b915061320a83612596565b925082820261321881612596565b9150828204841483151761322f5761322e6131c5565b5b5092915050565b7f4e487b7100000000000000000000000000000000000000000000000000000000600052601260045260246000fd5b600061327082612596565b915061327b83612596565b92508261328b5761328a613236565b5b828204905092915050565b7f45786368616e6765206e6f742070726f66697461626c6520656e6f756768202860008201527f3e31302529000000000000000000000000000000000000000000000000000000602082015250565b60006132f26025836124ef565b91506132fd82613296565b604082019050919050565b60006020820190508181036000830152613321816132e5565b9050919050565b7f41727469636c65206e6f74206d61726b656420666f722073616c650000000000600082015250565b600061335e601b836124ef565b915061336982613328565b602082019050919050565b6000602082019050818103600083015261338d81613351565b9050919050565b600061339f82612596565b91506133aa83612596565b92508282039050818111156133c2576133c16131c5565b5b92915050565b7f4e487b7100000000000000000000000000000000000000000000000000000000600052603260045260246000fd5b600061340282612596565b91507fffffffffffffffffffffffffffffffffffffffffffffffffffffffffffffffff8203613434576134336131c5565b5b600182019050919050565b60008190508160005260206000209050919050565b60006020601f8301049050919050565b600082821b905092915050565b6000600883026134a17fffffffffffffffffffffffffffffffffffffffffffffffffffffffffffffffff82613464565b6134ab8683613464565b95508019841693508086168417925050509392505050565b6000819050919050565b60006134e86134e36134de84612596565b6134c3565b612596565b9050919050565b6000819050919050565b613502836134cd565b61351661350e826134ef565b848454613471565b825550505050565b600090565b61352b61351e565b6135368184846134f9565b505050565b5b8181101561355a5761354f600082613523565b60018101905061353c565b5050565b601f82111561359f576135708161343f565b61357984613454565b81016020851015613588578190505b61359c61359485613454565b83018261353b565b50505b505050565b600082821c905092915050565b60006135c2600019846008026135a4565b1980831691505092915050565b60006135db83836135b1565b9150826002028217905092915050565b6135f4826124e4565b67ffffffffffffffff81111561360d5761360c612a6e565b5b6136178254612e74565b61362282828561355e565b600060209050601f8311600181146136555760008415613643578287015190505b61364d85826135cf565b8655506136b5565b601f1984166136638661343f565b60005b8281101561368b57848901518255600182019150602085019450602081019050613666565b868310156136a857848901516136a4601f8916826135b1565b8355505b6001600288020188555050505b505050505050565b600060408201905081810360008301526136d7818561253b565b90506136e66020830184612714565b9392505050565b600081905092915050565b6000613703826124e4565b61370d81856136ed565b935061371d818560208601612500565b80840191505092915050565b600061373582856136f8565b915061374182846136f8565b91508190509392505050565b7f596f7520617265206e6f7420746865206f776e6572206f66207468697320617260008201527f7469636c65000000000000000000000000000000000000000000000000000000602082015250565b60006137a96025836124ef565b91506137b48261374d565b604082019050919050565b600060208201905081810360008301526137d88161379c565b9050919050565b7f4552433732313a207472616e736665722066726f6d20696e636f72726563742060008201527f6f776e6572000000000000000000000000000000000000000000000000000000602082015250565b600061383b6025836124ef565b9150613846826137df565b604082019050919050565b6000602082019050818103600083015261386a8161382e565b9050919050565b7f4552433732313a207472616e7366657220746f20746865207a65726f2061646460008201527f7265737300000000000000000000000000000000000000000000000000000000602082015250565b60006138cd6024836124ef565b91506138d882613871565b604082019050919050565b600060208201905081810360008301526138fc816138c0565b9050919050565b7f4552433732313a20617070726f766520746f2063616c6c657200000000000000600082015250565b60006139396019836124ef565b915061394482613903565b602082019050919050565b600060208201905081810360008301526139688161392c565b9050919050565b7f4552433732313a207472616e7366657220746f206e6f6e20455243373231526560008201527f63656976657220696d706c656d656e7465720000000000000000000000000000602082015250565b60006139cb6032836124ef565b91506139d68261396f565b604082019050919050565b600060208201905081810360008301526139fa816139be565b9050919050565b7f4552433732313a206d696e7420746f20746865207a65726f2061646472657373600082015250565b6000613a376020836124ef565b9150613a4282613a01565b602082019050919050565b60006020820190508181036000830152613a6681613a2a565b9050919050565b7f4552433732313a20746f6b656e20616c7265616479206d696e74656400000000600082015250565b6000613aa3601c836124ef565b9150613aae82613a6d565b602082019050919050565b60006020820190508181036000830152613ad281613a96565b9050919050565b600081519050919050565b600082825260208201905092915050565b6000613b0082613ad9565b613b0a8185613ae4565b9350613b1a818560208601612500565b613b238161252a565b840191505092915050565b6000608082019050613b43600083018761262b565b613b50602083018661262b565b613b5d6040830185612714565b8181036060830152613b6f8184613af5565b905095945050505050565b600081519050613b8981612455565b92915050565b600060208284031215613ba557613ba461241f565b5b6000613bb384828501613b7a565b9150509291505056fea26469706673582212207723e412bd1a64dd9549e9333b09bb4c2964d44dad8c8e18d818a0aa434c9a6464736f6c63430008120033",
  "linkReferences": {},
  "deployedLinkReferences": {}
}